:100000000C946F010C94E0080C940D090C943A09BF
:100010000C9467090C9497010C9497010C94940923
:100020000C9497010C9497010C94890E0C94100F6A
:100030000C9497010C9497010C9497010C949701E0
:100040000C9497010C9497010C9497010C949701D0
:100050000C9497010C9497010C9497010C94C1098E
:100060000C9497010C9497010C9497010C949701B0
:100070000C9497010C9497010C9497010C949701A0
:100080000C9497010C9497010C9497010C94970190
:100090000C9497010C9497010C9497010C94970180
:1000A0000C9497010C9497010C94970100000000A8
:1000B000240027002A002D00300000000000250049
:1000C00028002B002E003100000000002300260035
:1000D00029002C002F000404040404030405020278
:1000E00002020403020202020606060606060404D1
:1000F00002020204040802011040804010204080E7
:10010000408008020401804020100201108010206D
:1001100040400000000200080E0000030401000B34
:100120000000070605040100080A0B0C0D09080B66
:1001300000020202010009040000010202000005A1
:1001400024001001052401010104240206052406EF
:1001500000010705810310004009040100020A00A4
:10016000000007050202400000070583024000006E
:1001700004030904220355005300420020004900F3
:100180004F00200042006F006100720064002000F8
:10019000200020002000180353007000610072004E
:1001A0006B00460075006E00200020002000120148
:1001B0000002000000404F1B0692000101020001F6
:1001C00012010002020000404F1B069200010102D2
:1001D000000100C18081C105010902A1010901A13D
:1001E00000850105091901290315002501950375ED
:1001F0000181029501750581030501093009310965
:10020000381581257F750895038106C0C005010951
:1002100006A1018502050719E029E71500250175EA
:1002200001950881029501750881039506750815E9
:100230000025650507190029658100C00904020031
:1002400001030000000921010100012265000705EA
:10025000840340000100000000000000002A2B2859
:10026000000000000000000000000000000000008E
:1002700000000000002C9EB4A0A1A2A434A6A7A553
:10028000AE362D3738271E1F20212223242526B3E2
:1002900033B62EB7B89F8485868788898A8B8C8DE4
:1002A0008E8F909192939495969798999A9B9C9DF6
:1002B0002F3130A3AD350405060708090A0B0C0DD4
:1002C0000E0F101112131415161718191A1B1C1DD6
:1002D000AFB1B0B50000E202EB0BC50D3213112433
:1002E0001FBECFEFDAE0DEBFCDBF11E0A0E0B1E08E
:1002F000E6E8F8E202C005900D92A23AB107D9F7FC
:1003000013E0A2EAB1E001C01D92A235B107E1F706
:1003100012E0CEEDD2E004C02297FE010E943D140F
:10032000C63DD107C9F70E94B60C0C9441140C9439
:100330000000FB01DC0102C001900D9241505040D1
:10034000D8F70895FB01DC0101900D920020E1F740
:100350000895FB01DC014150504030F08D91019037
:10036000801919F40020B9F7881B990B0895FC0136
:100370001282118210820895FC0112821182108271
:100380000895CF93DF93EC018A81FE01E80FF11D00
:1003900063838F5FFE01E80FF11D43838F5F8A83C4
:1003A00050E060E070E00CC0FE01E90FF11DD901E2
:1003B000A60FB71F8C9183839F5F9A836F5F7F4FD8
:1003C000641775071CF49A81903770F3DF91CF9111
:1003D0000895CF93DF93DC01EA0112964C911297B6
:1003E00090E012C0292F30E0FD01E20FF31F83815E
:1003F000861739F4F9013396EA0FFB1F309749F459
:1004000011C084818E5F980F941760F4903750F379
:1004100009C0828193819983888380E0CD2B19F074
:1004200081E001C080E0DF91CF910895CF93DF9309
:10043000EC0120E030E00CC0FE01E90FF11DDB0112
:10044000A20FB31F8C9183839F5F9A832F5F3F4FCF
:10045000241735071CF49A81903770F3DF91CF9100
:100460000895FF920F931F93682FF92E0AE213E06D
:10047000C8010E94020CC8016F2D0E94020C1F913E
:100480000F91FF900895CF92DF92EF92FF920F931A
:100490001F93CF93DF937C018AE293E060E071E0E9
:1004A0000E940F0DF701808191810E943102F701B6
:1004B0008081918101E216E70827002E0295007FD6
:1004C0000025012E102F02950F700026069510278B
:1004D0000127000F000F000F00250927002E0295AD
:1004E000007F0025012E102F02950F700026069523
:1004F00010270127000F000F000F0025828190E0D8
:100500000E943102F70182810827002E0295007FA8
:100510000025012E102F02950F700026069510273A
:100520000127000F000F000F002580E00827002E94
:100530000295007F0025012E102F02950F700026D6
:10054000069510270127000F000F000F0025E70177
:10055000CC24DD241AC08AE293E06A810E94020C56
:100560008A810827002E0295007F0025012E102F7A
:1005700002950F700026069510270127000F000F27
:10058000000F00250894C11CD11C2196F70182811F
:1005900090E0C816D906FCF2C8010E9431028AE236
:1005A00093E06DE00E94020C8AE293E06AE00E9410
:1005B000020CDF91CF911F910F91FF90EF90DF9090
:1005C000CF9008958CE592E00E94B70182EB91E014
:1005D0000E947508089583E0EFECF2E0DF011D92C0
:1005E0008A95E9F78CE592E00E94BC010895CF92CC
:1005F000DF92EF92FF920F931F93DF93CF93CDB7CC
:10060000DEB7C157D0400FB6F894DEBF0FBECDBFE6
:100610008AE293E00E94A10B89838091D102882312
:1006200009F0C6C08091CF02883008F124C08AE268
:1006300093E00E94C80B282F898181508983909173
:10064000CF02E92FF0E0E45FFE4F8081281739F4F4
:10065000892F8F5F8093CF02883051F40CC02035F2
:1006600019F41093CF0204C01092CF0201C011E020
:1006700089818823E1F68091CF028C3058F58981F9
:10068000843008F495C08AE293E00E94C80B8C0184
:100690008AE293E00E94C80B382F20E0202B312BF8
:1006A00030935D0220935C028AE293E00E94C80BC3
:1006B000182F8AE293E00E94C80B1093D002898120
:1006C000845089838091CF028C5F8093CF02113751
:1006D00008F065C08981882309F46AC08091CF023F
:1006E0008C3008F465C05EC08981481710F0F9802D
:1006F00001C0F42E92E0C92ED12CCC0EDD1E8F2D20
:1007000090E09C01890107C08AE293E00E94C80B37
:10071000F60181936F0101501040FFEF0F3F1F075B
:1007200099F78CE592E0BE016E5F7F4F4F2D50E050
:100730000E9416028091D0028F198093D002898185
:100740008F1989838091D002882391F58091D102FD
:10075000882371F58981843058F18E010E5F1F4F17
:10076000780186E0C82ED12CCC0EDD1E07C08AE2AF
:1007700093E00E94C80BF80181938F010C151D05B1
:10078000B1F7C701029669E071E042E050E00E94D3
:10079000A901009721F481E08093D10209C00E9451
:1007A000EB0206C04091D002442309F09DCFCACF8E
:1007B000CF58DF4F0FB6F894DEBF0FBECDBFCF913D
:1007C000DF911F910F91FF90EF90DF90CF900895F0
:1007D0000F931F93DF93CF93CDB7DEB727970FB655
:1007E000F894DEBF0FBECDBF8E010F5F1F4FC80153
:1007F00065E171E00E94C210C8010E94DC101092F5
:10080000A70127960FB6F894DEBF0FBECDBFCF91DC
:10081000DF911F910F9108950F931F93DF93CF9353
:10082000CDB7DEB727970FB6F894DEBF0FBECDBFAA
:100830008E010F5F1F4FC80163E271E00E94C2107A
:10084000C8010E94DC10209165013091660140E0F2
:1008500050E082EB91E065E001E00E9422089927D8
:1008600087FD90959093AB018093AA0127960FB6D0
:10087000F894DEBF0FBECDBFCF91DF911F910F91D6
:1008800008950F931F9302EB11E0C8016091A80136
:100890000E94A807C8016091AA010E94A807C80188
:1008A0006091AC010E94A807C8016091AE010E944E
:1008B000A807C8016091B0010E94A8071F910F917D
:1008C00008950F931F93DF93CF93CDB7DEB727978C
:1008D0000FB6F894DEBF0FBECDBF8E010F5F1F4F66
:1008E000C80164E371E00E94C210C8010E94DC10DC
:1008F0000E9441041092A60127960FB6F894DEBF1D
:100900000FBECDBFCF91DF911F910F9108950F932F
:100910001F93DF93CF93CDB7DEB727970FB6F89429
:10092000DEBF0FBECDBF8E010F5F1F4FC8016EE34C
:1009300071E00E94C210C8010E94DC100E944104B4
:1009400086E060E00E946D0B85E060E00E946D0B28
:100950001092A6011092A70127960FB6F894DEBF59
:100960000FBECDBFCF91DF911F910F910895EF92F0
:10097000FF920F931F93DF93CF93CDB7DEB72E97E0
:100980000FB6F894DEBF0FBECDBF0E94090A9B01CF
:10099000AC018091A2019091A301A091A401B0911A
:1009A000A50179018A01E81AF90A0A0B1B0BD80183
:1009B000C7018A3F9105A105B10508F484C02093C1
:1009C000A2013093A3014093A4015093A5018E018D
:1009D0000F5F1F4FC80167E471E00E94C210C80199
:1009E0000E94DC108091A701882309F06CC08091DF
:1009F000A601882311F00E9487048E01085F1F4F13
:100A0000C80161E571E00E94C210C8010E94DC10BB
:100A100081E08093A6018093A7012091630130912A
:100A2000640140E050E082EB91E066E001E00E946A
:100A30002208992787FD90959093A9018093A8019A
:100A400040916301509164014C595F4F60E070E048
:100A500082EB91E02CE034E00E946C08992787FD3E
:100A600090959093AD018093AC01409167015091B6
:100A7000680160E070E082EB91E028EE33E00E94D4
:100A80006C08992787FD90959093AF018093AE01F4
:100A900040916301509164018091650190916601DC
:100AA000480F591F48535F4F60E070E082EB91E0C0
:100AB00021E634E00E946C08992787FD9095909379
:100AC000B1018093B0012E960FB6F894DEBF0FBE31
:100AD000CDBFCF91DF911F910F91FF90EF900895BF
:100AE000EF92FF920F931F93DF93CF93CDB7DEB7B3
:100AF000C357D0400FB6F894DEBF0FBECDBF8E01F6
:100B00000F5F1F4FC8010E94B70180E290E09A83F7
:100B1000898323E6E22E21E0F22EC80161E042E063
:100B200097010E94C10182E090E0E80EF91EC80121
:100B300062E042E097010E94C10182E090E0E80E8D
:100B4000F91EC80163E042E097010E94C10182E002
:100B500090E0E80EF91EC80164E042E097010E94AF
:100B6000C10182E090E0E80EF91EC80165E042E0B4
:100B700097010E94C101C8010E944302CD58DF4F76
:100B80000FB6F894DEBF0FBECDBFCF91DF911F919E
:100B90000F91FF90EF9008950F931F93DF93CF93E2
:100BA000CDB7DEB7C557D0400FB6F894DEBF0FBE45
:100BB000CDBF83E090E09A8389838E010D5F1F4F44
:100BC000C8010E94B70181E090E09C838B83C8013B
:100BD00061E042E09E012F5F3F4F0E94C101C801CA
:100BE0000E944302CB58DF4F0FB6F894DEBF0FBE12
:100BF000CDBFCF91DF911F910F910895CF93DF93D8
:100C0000C0E2D0E0FE01ED5BFE4F82ED92E0BE015E
:100C100040810E944E0782ED92E0BE010E9447078C
:100C20002196CE32D10571F7DF91CF910895DF93F0
:100C3000CF93CDB7DEB72A970FB6F894DEBF0FBEBD
:100C4000CDBF8CE592E061E0AE014F5F5F4F0E9447
:100C5000E901882309F44BC08CE592E062E0AE0123
:100C60004D5F5F4F0E94E901882309F440C08CE585
:100C700092E063E0AE014B5F5F4F0E94E901882381
:100C8000B1F18CE592E064E0AE01495F5F4F0E94F4
:100C9000E901882361F18CE592E065E0AE01475FF0
:100CA0005F4F0E94E901882311F189819A81909315
:100CB0006401809363018B819C8190936601809392
:100CC00065018D819E8190936801809367018F817A
:100CD000988590936A018093690189859A8590939C
:100CE0006C0180936B010E94FE050E9470052A969C
:100CF0000FB6F894DEBF0FBECDBFCF91DF91089540
:100D00008091D1028823B9F080915C0290915D02BC
:100D10008032910561F08138910519F0409749F4CE
:100D200003C00E94CC0505C00E94700502C00E944D
:100D300017060E94EB0208950E94F7020E948006A7
:100D400082EB91E00E94B7070895CF93DF9382ED85
:100D500092E06DE270E00E94470790E02091700100
:100D6000332727FD309582179307E9F582ED92E04E
:100D70006CE270E00E94470790E020916F013327FA
:100D800027FD30958217930771F582ED92E06BE2B3
:100D900070E00E94470790E020916E01332727FD05
:100DA000309582179307F9F482ED92E06AE270E0E1
:100DB0000E94470790E020916D01332727FD309571
:100DC0008217930781F4C0E2D0E082ED92E0BE0189
:100DD0000E944707FE01ED5BFE4F80832196CE32D5
:100DE000D10599F702C00E94FE05DF91CF910895C9
:100DF00083E0EFECF2E0DF011D928A95E9F70E94B3
:100E0000A50681E161E00E94D00A86E061E00E94CF
:100E1000D00A85E061E00E94D00A83E060E00E9491
:100E2000D00A86E060E00E946D0B85E060E00E94E1
:100E30006D0B83E061E00E946D0B81E161E00E9437
:100E40006D0B8AE293E060E875E20E94A00B0E94BD
:100E5000CC051092A6011092B1011092B00110922F
:100E6000AF011092AE011092AD011092AC01109240
:100E7000AB011092AA011092A9011092A80180E082
:100E800067EB74E042E050E00E948B080895F99906
:100E9000FECF72BD61BDF89A80B50895F999FECF75
:100EA0001FBA72BD61BD40BD0FB6F894FA9AF99AA7
:100EB0000FBE0895FC0110820895EF92FF920F93E8
:100EC0001F93CF93DF93EC010E94090A7B018C01F1
:100ED0008B859C85AD85BE85A8019701281B390BA4
:100EE0004A0B5B0B89819A81AB81BC81281739073A
:100EF0004A075B07E0F08881813019F0823071F495
:100F000004C0E985FA85099509C060E088858823D1
:100F100009F461E068878F810E946D0BEB86FC8687
:100F20000D871E878F8598890196988B8F872D81D5
:100F30003E8137FD06C08F859889821793070CF094
:100F40001882DF91CF911F910F91FF90EF9008953C
:100F5000772767FD7095FB0124E0EE0FFF1F2A95B0
:100F6000E1F7E60FF71FE80FF91F10820895EF92DF
:100F7000FF920F931F93CF93DF937C018C01C0E00E
:100F8000D0E0F8018081882361F0CE0134E0880F41
:100F9000991F3A95E1F78C0F9D1F8E0D9F1D0E94A2
:100FA0005D0721960F5E1F4FCA30D10551F7DF91C3
:100FB000CF911F910F91FF90EF900895DF92EF92E4
:100FC000FF920F931F93DC01762F602FFC01DD242D
:100FD0008081882341F0D39471968AE0D816C1F7B6
:100FE000DD24DA9428C08D2D992787FD90958C01FA
:100FF000E4E0000F111FEA95E1F7080F191F0A0F2F
:101000001B1F82E0F801808377832183328343832F
:1010100054836087872F0E946D0BEE0CFF1CF80134
:10102000F682E5820E94090AF80163877487858742
:101030009687108A17868D2D1F910F91FF90EF9044
:10104000DF900895EF92FF920F93F1E0EF2EF12CD5
:101050000E94DE070F91FF90EF900895FF920F938B
:101060001F93CF93DF93DC01E9019801FC01FF247A
:101070008081882341F0F39471968AE0F816C1F7D5
:10108000FF24FA9422C08F2D992787FD90958C011B
:10109000E4E0000F111FEA95E1F7080F191F0A0F8E
:1010A0001B1F81E0F8018083418352836383748333
:1010B00036832583D287C1870E94090AF801638796
:1010C000748785879687108A17868F2DDF91CF9139
:1010D0001F910F91FF9008950F931F9301E010E06F
:1010E0000E942E081F910F9108950F931F93CF9385
:1010F000DF93EC0100E010E0CE01800F911F0E9411
:101100005A070F5E1F4F0A3A1105B1F7DF91CF91D1
:101110001F910F910895853008F051C0E82FF0E03D
:10112000EE0FFF1FED52FD4F71836083823009F196
:10113000833030F4882349F0813009F040C00DC07D
:10114000833021F18430D9F52EC0809169008C7FE5
:10115000842B80936900E89A089580916900440F78
:10116000551F440F551F837F842B80936900E99A94
:1011700008958091690034E0440F551F3A95E1F7D6
:101180008F7C842B80936900EA9A0895809169008E
:1011900026E0440F551F2A95E1F78F73842B809327
:1011A0006900EB9A089580916A0094E0440F551FFE
:1011B0009A95E1F78F7C842B80936A00EE9A0895CC
:1011C0001F920F920FB60F9211242F933F934F93BC
:1011D0005F936F937F938F939F93AF93BF93EF939F
:1011E000FF938091D3029091D402892B29F0E09152
:1011F000D302F091D4020995FF91EF91BF91AF9185
:101200009F918F917F916F915F914F913F912F911E
:101210000F900FBE0F901F9018951F920F920FB650
:101220000F9211242F933F934F935F936F937F936C
:101230008F939F93AF93BF93EF93FF938091D502CA
:101240009091D602892B29F0E091D502F091D60237
:101250000995FF91EF91BF91AF919F918F917F91F0
:101260006F915F914F913F912F910F900FBE0F9013
:101270001F9018951F920F920FB60F9211242F9363
:101280003F934F935F936F937F938F939F93AF930E
:10129000BF93EF93FF938091D7029091D802892B4F
:1012A00029F0E091D702F091D8020995FF91EF91D2
:1012B000BF91AF919F918F917F916F915F914F916E
:1012C0003F912F910F900FBE0F901F9018951F9276
:1012D0000F920FB60F9211242F933F934F935F936A
:1012E0006F937F938F939F93AF93BF93EF93FF93EE
:1012F0008091D9029091DA02892B29F0E091D902EC
:10130000F091DA020995FF91EF91BF91AF919F9112
:101310008F917F916F915F914F913F912F910F909E
:101320000FBE0F901F9018951F920F920FB60F923D
:1013300011242F933F934F935F936F937F938F93DA
:101340009F93AF93BF93EF93FF938091DB029091B4
:10135000DC02892B29F0E091DB02F091DC02099597
:10136000FF91EF91BF91AF919F918F917F916F917D
:101370005F914F913F912F910F900FBE0F901F9053
:1013800018951F920F920FB60F9211242F933F932F
:101390008F939F93AF93BF938091E1029091E2026C
:1013A000A091E302B091E4023091E5020196A11D03
:1013B000B11D232F2D5F2D3720F02D570196A11D34
:1013C000B11D2093E5028093E1029093E202A09385
:1013D000E302B093E4028091DD029091DE02A091DD
:1013E000DF02B091E0020196A11DB11D8093DD02E4
:1013F0009093DE02A093DF02B093E002BF91AF9121
:101400009F918F913F912F910F900FBE0F901F9042
:1014100018958FB7F8942091E1023091E202409143
:10142000E3025091E4028FBFB901CA0108959B0104
:10143000AC017FB7F8948091DD029091DE02A0911B
:10144000DF02B091E00266B5A89B05C06F3F19F0BE
:101450000196A11DB11D7FBFBA2FA92F982F8827F4
:10146000860F911DA11DB11D62E0880F991FAA1F53
:10147000BB1F6A95D1F7BC012DC0FFB7F8948091CE
:10148000DD029091DE02A091DF02B091E002E6B5AC
:10149000A89B05C0EF3F19F00196A11DB11DFFBF2C
:1014A000BA2FA92F982F88278E0F911DA11DB11D2E
:1014B000E2E0880F991FAA1FBB1FEA95D1F7861B90
:1014C000970B885E9340C8F2215030404040504016
:1014D00068517C4F211531054105510571F608957C
:1014E000789484B5826084BD84B5816084BD85B5FF
:1014F000826085BD85B5816085BDEEE6F0E08081C6
:1015000081608083E1E8F0E01082808182608083E6
:10151000808181608083E0E8F0E080818160808369
:10152000E1EBF0E0808184608083E0EBF0E080819B
:1015300081608083E1E9F0E0808182608083808146
:1015400081608083E0E9F0E0808181608083E1EC6C
:10155000F0E08081846080838081826080838081EC
:1015600081608083E3ECF0E0808181608083E0EC47
:10157000F0E0808182608083E2ECF0E08081816035
:101580008083EAE7F0E080818460808380818260EC
:1015900080838081816080838081806880830895DA
:1015A000CF93DF93482F50E0CA018C509F4FFC012E
:1015B00034914A525F4FFA018491882369F190E097
:1015C000880F991FFC01E455FF4FA591B491FC01D0
:1015D000E654FF4FC591D491662351F42FB7F89488
:1015E0008C91932F909589238C93888189230BC0AC
:1015F000623061F42FB7F8948C91932F90958923E2
:101600008C938881832B88832FBF06C09FB7F89463
:101610008C91832B8C939FBFDF91CF91089587305E
:10162000C1F1883080F48330F9F0843030F48130B7
:1016300029F1823009F050C024C08430C9F08630CE
:1016400009F04AC022C08A3091F18B3030F48830E2
:1016500031F1893009F040C026C08C3091F18C30D6
:1016600060F18E30C9F533C0809180008F7703C060
:10167000809180008F7D80938000089584B58F775E
:1016800002C084B58F7D84BD08958091B0008F77AE
:1016900003C08091B0008F7D8093B0000895809149
:1016A00090008F7707C0809190008F7D03C080915C
:1016B0009000877F8093900008958091C0008F777D
:1016C00003C08091C0008F7D8093C00008958091F9
:1016D000C200877F8093C2000895FF920F931F93EB
:1016E000F62E482F50E0CA018E5E9E4FFC012491D9
:1016F000CA018C509F4FFC0114914A525F4FFA016E
:1017000004910023C9F0222319F0822F0E940F0BAD
:10171000E02FF0E0EE0FFF1FE654FF4FA591B491CC
:101720009FB7F894FF2021F48C911095812302C07B
:101730008C91812B8C939FBF1F910F91FF900895E7
:1017400008952091260330912703809128039091DA
:101750002903281B390B2F733070C901089520917C
:10176000260330912703809128039091290328179D
:10177000390719F42FEF3FEF09C0E0912803F091EA
:101780002903EA51FD4F8081282F30E0C9010895D7
:1017900020912603309127038091280390912903FB
:1017A0002817390719F42FEF3FEF13C0E0912803F2
:1017B000F0912903EA51FD4F2081809128039091F7
:1017C000290301968F7390709093290380932803C7
:1017D00030E0C901089510922D0310922C0388EE79
:1017E00093E0A0E0B0E080932E0390932F03A093AA
:1017F0003003B093310385E891E090932B038093FD
:101800002A0308950F931F93DF93CF930F92CDB7C1
:10181000DEB78C01698380917801882369F083E0C9
:10182000BE016F5F7F4F41E050E00E94E40D18164B
:10183000190614F49C0107C081E090E0F80193833D
:10184000828320E030E0C9010F90CF91DF911F919A
:101850000F91089583E00E94BB0D0895CF93DF930D
:1018600012C082E00E94460D2FEF8F3F9207C9F011
:10187000E0912603F0912703EA51FD4F8083D09336
:101880002703C0932603C0912603D09127032196F6
:10189000CF73D0708091280390912903C817D9077E
:1018A00001F7DF91CF910895FC0180818E5F8083E5
:1018B00080E86EE271E042E450E00E945F0D08951E
:1018C000FC0181819081913A59F4813209F04CC038
:1018D00080E061E771E047E050E00E945F0D42C0A8
:1018E000913209F041C0803239F481E791E067E03C
:1018F00070E00E94A30D36C0823209F035C08281AB
:10190000809378018091710190917201A09173018F
:10191000B0917401805B9440A040B04019F5809173
:10192000780180FD12C087E797E7909301088093C4
:1019300000082BE088E190E00FB6F894A89580931A
:1019400060000FBE209360000DC088E10FB6F894D0
:1019500080936000109260000FBEA895109201085D
:101960001092000881E0089580E00895CF93DF93FE
:101970000E94700A80E493E00E94C60D0E94F8065F
:10198000C0E0D0E00E949C062097E1F30E94000096
:10199000F9CFCF92DF92EF92FF920F931F93CF93E5
:1019A000DF937C016B018A01C0E0D0E00FC0D6015B
:1019B0006D916D01D701ED91FC910190F081E02DC9
:1019C000C7010995C80FD91F015010400115110515
:1019D00071F7CE01DF91CF911F910F91FF90EF90A2
:1019E000DF90CF900895CF93DF93EC0161157105DF
:1019F00019F420E030E00FC0DB010D900020E9F782
:101A00001197A61BB70BE881F9810280F381E02DC5
:101A1000AD0109959C01C901DF91CF9108950E9404
:101A2000F30C0895282F80913A038823C1F057FFC3
:101A30001AC015C02898909339038091F1008193C2
:101A4000E217F307B9F74115510539F08091F2001B
:101A5000882319F48BE68093E800AFBF02C04FEFF4
:101A60005FEFCA010895AFB7F89427702093E9009B
:101A70008091F200282F30E0241735070CF4A901DB
:101A8000FB019B01240F311D94E6DACFDF93CF9346
:101A90000F92CDB7DEB7BE016F5F7F4F41E050E0E0
:101AA0000E94120D019719F02FEF3FEF03C08981BB
:101AB000282F30E0C9010F90CF91DF910895FF9258
:101AC0000F931F93F82E142F052F40913D03509133
:101AD0003E03212F302FC901DC01FB016EEF29C02D
:101AE000F7FE02C0949101C0908120913B03309198
:101AF0003C0324173507ACF48091E8008570E1F3CE
:101B00008091E80082FF03C02FEF3FEF17C0909352
:101B1000F100C90101968F739070892B11F46093C5
:101B2000E8002F5F3F4F30933C0320933B03119716
:101B300031961097A9F6812F902F9C01C9011F9112
:101B40000F91FF9008959C018091E80082FFFCCFE7
:101B5000F901260F311D03C08091F1008193E21736
:101B6000F307D1F7289884E6809339038BEF8093AD
:101B7000E800CB0108958093E9008091F20088236A
:101B800019F08AE38093E8000895089510923A03CB
:101B900081E08093D70080EA8093D80082E189BDFC
:101BA00009B400FEFDCF61E070E080E090E00E94AB
:101BB000170A80E98093D8008CE08093E2001092AD
:101BC000E000559A209A08955F926F927F928F92CB
:101BD0009F92AF92BF92CF92DF92EF92FF920F93BC
:101BE0001F93CF93DF93E82E842E752E80913A03B6
:101BF000882371F18B01242F352FC901EC017AEF75
:101C0000F72E67E0962E9E2050E4552E8E2D90E004
:101C100040E2A42EB12CA822B9223AE3632E20E49C
:101C2000C22ED12CC822D92258C09FB7F8949092C6
:101C3000E9008091E80085FD02C020E004C08091A9
:101C4000F200252D281B9FBF222361F4FA9419F47A
:101C50002FEF3FEF4DC061E070E080E090E00E9428
:101C6000170A3BC0822F90E0C817D9070CF42C2F1D
:101C7000C21BD1094FB7F8949092E900A114B104A6
:101C800021F406C01092F10021502223D9F719C087
:101C9000E7FC03C0F801922F10C0C801322F06C024
:101CA000FC010196E491E093F10031503323C1F738
:101CB00006C081918093F10091509923D1F7020FD2
:101CC000111D8091E80085FF05C0209729F4C114FB
:101CD000D10411F06092E8004FBF209709F0A5CF22
:101CE0005D9884E680933803282D372DC9019C0127
:101CF000C901DF91CF911F910F91FF90EF90DF907D
:101D0000CF90BF90AF909F908F907F906F905F909B
:101D100008951F920F920FB60F9211242F933F93A5
:101D20004F935F936F937F938F939F93AF93BF93E3
:101D3000EF93FF938091E1001092E100982F83FFD1
:101D40000FC01092E90081E08093EB001092EC004C
:101D500082E38093ED0010923A0388E08093F000D4
:101D600092FF34C083E08093E9008091F2008823E1
:101D700019F08AE38093E8008FB7F89492E090938B
:101D8000E9009091F2008FBF992321F08AE293E05D
:101D90000E942E0C80913803882351F080913803E3
:101DA00081508093380380913803882309F45D9A29
:101DB00080913903882351F08091390381508093B9
:101DC000390380913903882309F4289AFF91EF9110
:101DD000BF91AF919F918F917F916F915F914F9143
:101DE0003F912F910F900FBE0F901F9018950F935A
:101DF0001F93DF93CF930F92CDB7DEB719828E0179
:101E00000F5F1F4FC8010E94540CC8010E942F147D
:101E1000898190E00F90CF91DF911F910F910895EC
:101E20001F920F920FB60F921124EF92FF921F9301
:101E30002F933F934F935F936F937F938F939F93D2
:101E4000AF93BF93EF93FF93DF93CF93CDB7DEB7FD
:101E50006197DEBFCDBF1092E9008091E80083FF5B
:101E60000FC1FE0131969E01275F3F4F03C0809155
:101E7000F1008193E217F307D1F7289884E6809365
:101E8000390382EF8093E800998197FF05C0809124
:101E9000E80080FFFCCF03C08EEF8093E800292F7D
:101EA00030E0C90180769070892B09F0C2C08A8128
:101EB000882329F41092F1001092F100D6C08130ED
:101EC00009F4D3C0833009F4D0C0853049F480913F
:101ED000E80080FFFCCF8B8180688093E300C5C061
:101EE000863009F07CC01C81EF80F8841230C1F587
:101EF0001092E90010923C0310923B0310923E03B3
:101F000010923D030E94F70E99E0FE013996DF0121
:101F1000292F1D922A95E9F799871A8791E09E87C4
:101F200090E8988B9AEF998B20913B0330913C037A
:101F3000275F3F4F3C872B878D871092E9001092D7
:101F40003C0310923B03F0923E03E0923D0380E09D
:101F5000BF0149E050E00E945F0D0E94F70E85C06E
:101F60001092E90010923C0310923B03F0923E0362
:101F7000E0923D03123241F482E290E00E94271485
:101F8000892B09F476C071C0113079F488E0E81625
:101F9000F10419F481E080933F0380913F0388238B
:101FA00009F06BC0EEEAF1E013C0133009F061C034
:101FB0008B81882319F4E0E7F1E00AC0823019F43C
:101FC000E4E7F1E005C0813009F053C0E6E9F1E053
:101FD000449180E8BF0150E00E945F0D46C0873009
:101FE00009F447C0883021F481E08093F1003DC0BE
:101FF0008930D9F523703070232BD9F5E3EDF1E06A
:1020000091E031E026E39093E9003093EB00849176
:102010008093EC002093ED009F5F3196953099F707
:102020008EE78093EA001092EA008B8180933A0356
:102030001CC08F8198851092E90010923C03109289
:102040003B0390933E0380933D038D81882329F4C5
:10205000CE0101960E94600C06C0823051F4CE0180
:1020600001960E94F812882321F08EEF8093E800F9
:1020700007C081E28093EB0003C0E0ECF1E0A8CF61
:102080006196DEBFCDBFCF91DF91FF91EF91BF9100
:10209000AF919F918F917F916F915F914F913F9100
:1020A0002F911F91FF90EF900F900FBE0F901F90F8
:1020B00018950F931F93CF93DF93EC018B016F5F04
:1020C0007F4F888199810E941712009711F480E058
:1020D00005C0998388831B830A8381E0DF91CF91B8
:1020E0001F910F910895CF93DF93EC01888199811F
:1020F000892B29F08A819B818617970760F4CE018E
:102100000E945910882341F08C819D81892B19F4FC
:10211000E881F981108281E0DF91CF910895CF931A
:10212000DF93EC0188819981009711F00E947F1163
:10213000198218821D821C821B821A82DF91CF9124
:102140000895EF92FF920F931F93CF93DF93EC01CB
:102150007B018A01BA010E947310882321F4CE0109
:102160000E948F1007C01D830C8388819981B7015D
:102170000E94A201CE01DF91CF911F910F91FF909C
:10218000EF900895CF93DF93EC01198218821B82A0
:102190001A821D821C821E826115710551F0DB01BD
:1021A0000D900020E9F71197A61BB70BAD010E9417
:1021B000A110DF91CF910895FC01808191810E944F
:1021C0007F1108950F931F93CF93DF93BC0182304B
:1021D000910510F462E070E0E0915003F09151033A
:1021E00040E050E0A0E0B0E024C0808191818617FB
:1021F0009707D0F08617970771F482819381109723
:1022000029F013969C938E9312972CC090935103B0
:102210008093500327C04115510519F08417950785
:1022200018F48D01AC01EF01DF01828193819C01E3
:10223000F9013097D1F641155105F9F0CA01861B15
:10224000970B8430910580F48A819B8101151105DB
:1022500021F0F8019383828304C09093510380930B
:102260005003FE01329645C0FE01E80FF91F61934D
:1022700071930297998388833CC080914E0390911B
:102280004F03892B41F480917B0190917C019093C5
:102290004F0380934E0340917D0150917E01411583
:1022A000510541F44DB75EB78091790190917A0163
:1022B000481B590B20914E0330914F0324173507CB
:1022C000B0F4CA01821B930B8617970780F0AB010D
:1022D0004E5F5F4F8417950750F0420F531F509386
:1022E0004F0340934E03F9016193719302C0E0E004
:1022F000F0E0CF01DF91CF911F910F910895CF931F
:10230000DF939C01009709F48FC0EC0122971B8298
:102310001A8260915003709151036115710581F427
:1023200088819981820F931F20914E0330914F0332
:102330002817390739F5D0934F03C0934E0374C063
:10234000DB0140E050E0AC17BD0708F1BB83AA8376
:10235000FE0121913191E20FF31FAE17BF0779F40F
:102360008D919C911197280F391F2E5F3F4F398314
:10237000288312968D919C9113979B838A83411594
:10238000510571F4D0935103C09350034DC0129680
:102390008D919C911397AD01009711F0DC01D3CF83
:1023A000DA011396DC93CE931297FA0121913191C1
:1023B000E20FF31FCE17DF0769F488819981280F98
:1023C000391F2E5F3F4FFA01318320838A819B8121
:1023D00093838283E0E0F0E0DB0112968D919C9183
:1023E0001397009719F0BC01FD01F6CFAB014E5FCA
:1023F0005F4FDB018D919C91840F951F20914E03BF
:1024000030914F032817390779F4309729F4109247
:1024100051031092500302C0138212824250504066
:1024200050934F0340934E03DF91CF9108956F92E5
:102430007F928F929F92AF92BF92CF92DF92EF9254
:10244000FF920F931F93CF93DF938C01009729F492
:10245000CB010E94E2108C01BBC08EEFE82E8FEF03
:10246000F82EE00EF11E4801860E971E8E149F0472
:1024700008F4ACC0D7014D915C91119746175707EE
:10248000B8F04530510508F4A3C0CA010497861777
:10249000970708F49DC042505040461B570BF4016B
:1024A000419351936D937C93CF010E947F1190C013
:1024B0005B01A41AB50A3801640E751EA091500381
:1024C000B0915103E0E0F0E0CC24DD2447C0A61534
:1024D000B705A9F5CD91DC911197CE0102968A1529
:1024E0009B0568F1CE018A199B09029612962C91E0
:1024F000129713963C91059758F0F4012283338389
:10250000CA19DB09D183C083D7016D937C9309C0BD
:102510004E5F5F4F4C0F5D1FF70151834083C90130
:10252000FC01C114D10431F0D6011396FC93EE9353
:1025300012974EC0F0935103E093500349C08D9120
:102540009C911197E817F90708F4FC016D011296A8
:102550008C91129713969C919C01D901109709F0C8
:10256000B6CF80914E0390914F0386159705E9F4FD
:10257000E617F707D0F420917D0130917E012115F7
:10258000310541F42DB73EB78091790190917A01E0
:10259000281B390B82169306C8F490924F03809241
:1025A0004E03F7017183608313C0CB010E94E210D8
:1025B000EC01009759F0D7014D915C91B8010E9450
:1025C0009901C8010E947F118E0102C000E010E055
:1025D000C801DF91CF911F910F91FF90EF90DF9095
:1025E000CF90BF90AF909F908F907F906F90089505
:1025F000FC0191818081813A31F4913089F080E051
:10260000933089F40DC0813269F49B3021F48281CA
:1026100080937F0105C09A3029F4828180938001E4
:1026200081E0089580E00895EF92FF920F931F9349
:102630008C01E62EDC01ED91FC910480F581E02D0A
:102640000995F82ED801ED91FC910680F781E02DD7
:10265000C8016E2D09958F2D90E01F910F91FF906D
:10266000EF90089510924103109245031092440395
:1026700087E991E090934303809342030895EF929A
:10268000FF920F931F93DF93CF930F92CDB7DEB7D7
:1026900089838B017A0184E0BE016F5F7F4F41E047
:1026A00050E00E94E40D84E4B801A7010E94E40D0B
:1026B0000F90CF91DF911F910F91FF90EF900895B0
:1026C00082E048E050E00E943F130895FC0116822A
:1026D0001782108611861286138614823496BF01E3
:1026E0000E9460130895DC01683810F0685829C012
:1026F000E62FF0E067FF13C0E058F04081E090E083
:1027000002C0880F991FEA95E2F7809514962C91E4
:102710001497282314962C93149760E012C0EB5A58
:10272000FD4F6491662319F420E030E01DC067FF7F
:1027300008C014968C9114978D7F14968C931497DF
:102740006F77FD0190E0662321F08681861709F4FA
:1027500016829F5F31969630B1F7CD011496BD0178
:102760000E94601321E030E0C9010895CF93DF9308
:10277000DC01683810F0685825C0E62FF0E067FFEC
:1027800012C0E058F04081E090E002C0880F991F2D
:10279000EA95E2F714962C911497282B14962C9313
:1027A000149760E00FC0EB5AFD4F64916623D9F196
:1027B00067FF08C014968C911497826014968C93CE
:1027C00014976F7716968C9116978617A9F117961E
:1027D0008C911797861781F118968C911897861708
:1027E00059F119968C911997861731F11A968C9197
:1027F0001A97861709F11B968C911B978617E1F0A3
:10280000ED01E0E0F0E09E2F8E81882321F4EA0FB5
:10281000FB1F668306C09F5F31962196E630F10567
:1028200091F7963049F481E090E013969C938E9353
:10283000129720E030E007C0CD011496BD010E9440
:10284000601321E030E0C901DF91CF91089580E865
:1028500067ED71E045E650E00E945F0D0895FC01D0
:1028600080818F5F808380E86CE372E049E150E013
:102870000E945F0D0895EE0FFF1F0590F491E02D6B
:062880000994F894FFCF5B
:10288600504253502076313A000D0A0050425350C0
:102896002076313A0044656C61792074696D656F04
:1028A60075740054726967676572696E672067722E
:1028B60065656E00436F6D706C657465640041629A
:1028C6006F7274696E6700547269676765726564D2
:1028D600005374617274696E672073657175656EF5
:1028E600636500401FB80BE8030000000076320065
:1028F6000000E1000000000000800052030000011B
:102906000100000000020CC90CA10BC80BAF0B2A7A
:102916000C2E0C000000001413C90CB613731366BA
:0229260013009C
:00000001FF
