:100000000C946F010C9497010C9497010C94970138
:100010000C9497010C9497010C9497010C94970100
:100020000C9497010C9497010C94AD0A0C94340B2A
:100030000C9497010C9497010C9497010C949701E0
:100040000C9497010C9497010C9497010C949701D0
:100050000C9497010C9497010C9497010C94B4059F
:100060000C9497010C9497010C9497010C949701B0
:100070000C9497010C9497010C9497010C949701A0
:100080000C9497010C9497010C9497010C94970190
:100090000C9497010C9497010C9497010C94970180
:1000A0000C9497010C9497010C94970100000000A8
:1000B000240027002A002D00300000000000250049
:1000C00028002B002E003100000000002300260035
:1000D00029002C002F000404040404030405020278
:1000E00002020403020202020606060606060404D1
:1000F00002020204040802011040804010204080E7
:10010000408008020401804020100201108010206D
:1001100040400000000200080E0000030401000B34
:100120000000070605040100080A0B0C0D09080B66
:1001300000020202010009040000010202000005A1
:1001400024001001052401010104240206052406EF
:1001500000010705810310004009040100020A00A4
:10016000000007050202400000070583024000006E
:1001700004030904220355005300420020004900F3
:100180004F00200042006F006100720064002000F8
:10019000200020002000180353007000610072004E
:1001A0006B00460075006E00200020002000120148
:1001B0000002000000404F1B0692000101020001F6
:1001C00012010002020000404F1B069200010102D2
:1001D000000100C18081C105010902A1010901A13D
:1001E00000850105091901290315002501950375ED
:1001F0000181029501750581030501093009310965
:10020000381581257F750895038106C0C005010951
:1002100006A1018502050719E029E71500250175EA
:1002200001950881029501750881039506750815E9
:100230000025650507190029658100C00904020031
:1002400001030000000921010100012265000705EA
:10025000840340000100000000000000002A2B2859
:10026000000000000000000000000000000000008E
:1002700000000000002C9EB4A0A1A2A434A6A7A553
:10028000AE362D3738271E1F20212223242526B3E2
:1002900033B62EB7B89F8485868788898A8B8C8DE4
:1002A0008E8F909192939495969798999A9B9C9DF6
:1002B0002F3130A3AD350405060708090A0B0C0DD4
:1002C0000E0F101112131415161718191A1B1C1DD6
:1002D000AFB1B0B50000D2020F08E909B80C112483
:1002E0001FBECFEFDAE0DEBFCDBF11E0A0E0B1E08E
:1002F000E2E9FBE102C005900D92AA34B107D9F7FB
:1003000012E0AAE4B1E001C01D92A233B107E1F707
:1003100012E0CEEDD2E004C02297FE010E94C30D90
:10032000C63DD107C9F70E94DA080C94C70D0C949A
:100330000000FB01DC014150504030F08D910190F4
:10034000801919F40020B9F7881B990B0895FC0156
:100350001282118210820895FC0112821182108291
:100360000895CF93DF93EC018A81FE01E80FF11D20
:1003700063838F5FFE01E80FF11D43838F5F8A83E4
:1003800050E060E070E00CC0FE01E90FF11DD90102
:10039000A60FB71F8C9183839F5F9A836F5F7F4FF8
:1003A000641775071CF49A81903770F3DF91CF9131
:1003B0000895CF93DF93DC01EA0112964C911297D6
:1003C00090E012C0292F30E0FD01E20FF31F83817E
:1003D000861739F4F9013396EA0FFB1F309749F479
:1003E00011C084818E5F980F941760F4903750F39A
:1003F00009C0828193819983888380E0CD2B19F095
:1004000081E001C080E0DF91CF910895CF93DF9329
:10041000EC0120E030E00CC0FE01E90FF11DDB0132
:10042000A20FB31F8C9183839F5F9A832F5F3F4FEF
:10043000241735071CF49A81903770F3DF91CF9120
:100440000895FF920F931F93682FF92E0EE012E08C
:10045000C8010E942608C8016F2D0E9426081F911E
:100460000F91FF900895CF92DF92EF92FF920F933A
:100470001F93CF93DF937C018EE092E060E071E008
:100480000E943309F701808191810E942102F701C6
:100490008081918101E216E70827002E0295007FF6
:1004A0000025012E102F02950F70002606951027AB
:1004B0000127000F000F000F00250927002E0295CD
:1004C000007F0025012E102F02950F700026069543
:1004D00010270127000F000F000F0025828190E0F8
:1004E0000E942102F70182810827002E0295007FD9
:1004F0000025012E102F02950F700026069510275B
:100500000127000F000F000F002580E00827002EB4
:100510000295007F0025012E102F02950F700026F6
:10052000069510270127000F000F000F0025E70197
:10053000CC24DD241AC08EE092E06A810E94260855
:100540008A810827002E0295007F0025012E102F9A
:1005500002950F700026069510270127000F000F47
:10056000000F00250894C11CD11C2196F70182813F
:1005700090E0C816D906FCF2C8010E9421028EE064
:1005800092E06DE00E9426088EE092E06AE00E9410
:100590002608DF91CF911F910F91FF90EF90DF9090
:1005A000CF9008958AE491E00E94A7010895EF9208
:1005B000FF920F931F937C0185E061E00E94610729
:1005C0000027F7FC0095102FC801B7010E945C06B8
:1005D00085E060E00E9461071F910F91FF90EF900E
:1005E0000895EF92FF920F931F937C0186E061E0E4
:1005F0000E9461070027F7FC0095102FC801B70182
:100600000E945C0686E060E00E9461071F910F91E6
:10061000FF90EF90089584E00E949407892BA1F445
:1006200080911501909116010E94F10280911701AD
:10063000909118010E94D7026091190170911A01DE
:1006400080E090E00E945C06089583E0EDEBF1E02D
:10065000DF011D928A95E9F78AE491E00E94AC01DE
:100660000895CF92DF92EF92FF920F931F93DF9343
:10067000CF93CDB7DEB7C157D0400FB6F894DEBFE9
:100680000FBECDBF8EE092E00E94C50789838091A6
:10069000BF01882309F0C6C08091BD01883008F1F0
:1006A00024C08EE092E00E94EC07282F89818150BF
:1006B00089839091BD01E92FF0E0E45FFE4F8081D6
:1006C000281739F4892F8F5F8093BD01883051F44A
:1006D0000CC0203519F41093BD0104C01092BD0167
:1006E00001C011E089818823E1F68091BD018C3041
:1006F00058F58981843008F495C08EE092E00E941C
:10070000EC078C018EE092E00E94EC07382F20E08D
:10071000202B312B30934B0120934A018EE092E045
:100720000E94EC07182F8EE092E00E94EC071093D5
:10073000BE018981845089838091BD018C5F809343
:10074000BD01113708F065C08981882309F46AC0AA
:100750008091BD018C3008F465C05EC08981481766
:1007600010F0F98001C0F42E92E0C92ED12CCC0EED
:10077000DD1E8F2D90E09C01890107C08EE092E084
:100780000E94EC07F60181936F0101501040FFEFCA
:100790000F3F1F0799F78AE491E0BE016E5F7F4F1C
:1007A0004F2D50E00E9406028091BE018F19809368
:1007B000BE0189818F1989838091BE01882391F5BB
:1007C0008091BF01882371F58981843058F18E01B1
:1007D0000E5F1F4F780186E0C82ED12CCC0EDD1E97
:1007E00007C08EE092E00E94EC07F80181938F0130
:1007F0000C151D05B1F7C701029669E071E042E0F2
:1008000050E00E949901009721F481E08093BF019C
:1008100009C00E94250306C04091BE01442309F08F
:100820009DCFCACFCF58DF4F0FB6F894DEBF0FBEB3
:10083000CDBFCF91DF911F910F91FF90EF90DF908F
:10084000CF900895EF92FF920F931F93DF93CF9372
:10085000CDB7DEB7C357D0400FB6F894DEBF0FBE9A
:10086000CDBF8E010F5F1F4FC8010E94A70180E21C
:1008700090E09A83898325E1E22E21E0F22EC801DF
:1008800061E042E097010E94B10182E090E0E80E51
:10089000F91EC80162E042E097010E94B10182E0C6
:1008A00090E0E80EF91EC80163E042E097010E9463
:1008B000B101C8010E943302CD58DF4F0FB6F89442
:1008C000DEBF0FBECDBFCF91DF911F910F91FF9083
:1008D000EF9008950F931F93DF93CF93CDB7DEB7BB
:1008E000C557D0400FB6F894DEBF0FBECDBF82E033
:1008F00090E09A8389838E010D5F1F4FC8010E948B
:10090000A70181E090E09C838B83C80161E042E015
:100910009E012F5F3F4F0E94B101C8010E94330228
:10092000CB58DF4F0FB6F894DEBF0FBECDBFCF91CF
:10093000DF911F910F910895CF93DF93C0E2D0E034
:10094000FE01EB50FF4F80EC91E0BE0140810E9420
:10095000A80580EC91E0BE010E94A1052196CA3253
:10096000D10571F7DF91CF910895DF93CF9300D038
:1009700000D000D0CDB7DEB78AE491E061E0AE01EF
:100980004F5F5F4F0E94D901882351F18AE491E0C3
:1009900062E0AE014D5F5F4F0E94D901882301F1F3
:1009A0008AE491E063E0AE014B5F5F4F0E94D901A2
:1009B0008823B1F089819A81909316018093150163
:1009C0008B819C8190931801809317018D819E816A
:1009D00090931A01809319010E949C040E942204A2
:1009E00026960FB6F894DEBF0FBECDBFCF91DF9134
:1009F00008958091BF018823B9F080914A019091B8
:100A00004B018032910561F08138910519F04097D2
:100A100049F403C00E946A0405C00E94220402C077
:100A20000E94B5040E94250308950E9431030E948C
:100A3000F9040E940B030895CF93DF9380EC91E0BB
:100A400069E270E00E94A10590E020911E01332729
:100A500027FD309582179307E9F580EC91E068E275
:100A600070E00E94A10590E020911D01332727FD31
:100A700030958217930771F580EC91E067E270E0A2
:100A80000E94A10590E020911C01332727FD30959D
:100A900082179307F9F480EC91E066E270E00E941F
:100AA000A10590E020911B01332727FD3095821787
:100AB000930781F4C0E2D0E080EC91E0BE010E9497
:100AC000A105FE01EB50FF4F80832196CA32D1056C
:100AD00099F702C00E949C04DF91CF91089583E0B2
:100AE000EDEBF1E0DF011D928A95E9F70E941C050C
:100AF00081E161E00E94C40686E061E00E94C406D4
:100B000085E061E00E94C40684E060E00E94C406C3
:100B100086E060E00E94610785E060E00E94610776
:100B200084E061E00E94610781E161E00E94610769
:100B30008EE092E060E875E20E94C4070E946A04B9
:100B40000895F999FECF72BD61BDF89A80B50895F8
:100B5000F999FECF1FBA72BD61BD40BD0FB6F894C2
:100B6000FA9AF99A0FBE08951F920F920FB60F923C
:100B700011242F933F938F939F93AF93BF938091B3
:100B8000C5019091C601A091C701B091C8013091F3
:100B9000C9010196A11DB11D232F2D5F2D3720F016
:100BA0002D570196A11DB11D2093C9018093C50148
:100BB0009093C601A093C701B093C8018091C10171
:100BC0009091C201A091C301B091C4010196A11DF1
:100BD000B11D8093C1019093C201A093C301B09352
:100BE000C401BF91AF919F918F913F912F910F9031
:100BF0000FBE0F901F901895789484B5826084BDC5
:100C000084B5816084BD85B5826085BD85B5816010
:100C100085BDEEE6F0E0808181608083E1E8F0E070
:100C20001082808182608083808181608083E0E89F
:100C3000F0E0808181608083E1EBF0E0808184607E
:100C40008083E0EBF0E0808181608083E1E9F0E087
:100C5000808182608083808181608083E0E9F0E030
:100C6000808181608083E1ECF0E08081846080831A
:100C7000808182608083808181608083E3ECF0E00A
:100C8000808181608083E0ECF0E0808182608083FD
:100C9000E2ECF0E0808181608083EAE7F0E080812F
:100CA0008460808380818260808380818160808392
:100CB0008081806880830895EF92FF920F931F9345
:100CC000CF93DF937B018C013FB7F8948091C101F2
:100CD0009091C201A091C301B091C40126B5A89B17
:100CE00005C02F3F19F00196A11DB11D3FBFBA2FBE
:100CF000A92F982F8827820F911DA11DB11D52E0A9
:100D0000880F991FAA1FBB1F5A95D1F7EC0130C05D
:100D10000E947D0C3FB7F8948091C1019091C2016F
:100D2000A091C301B091C40126B5A89B05C02F3F77
:100D300019F00196A11DB11D3FBFBA2FA92F982F01
:100D40008827820F911DA11DB11D32E0880F991FC8
:100D5000AA1FBB1F3A95D1F78C1B9D0B885E934051
:100D6000B8F20894E108F10801091109C851DC4FF3
:100D7000E114F1040105110559F6DF91CF911F919E
:100D80000F91FF90EF900895CF93DF93482F50E09D
:100D9000CA018C509F4FFC0134914A525F4FFA01B7
:100DA0008491882369F190E0880F991FFC01E45534
:100DB000FF4FA591B491FC01E654FF4FC591D4912A
:100DC000662351F42FB7F8948C91932F9095892333
:100DD0008C93888189230BC0623061F42FB7F8941B
:100DE0008C91932F909589238C938881832B888372
:100DF0002FBF06C09FB7F8948C91832B8C939FBF15
:100E0000DF91CF9108958730C1F1883080F483302D
:100E1000F9F0843030F4813029F1823009F050C08B
:100E200024C08430C9F0863009F04AC022C08A301C
:100E300091F18B3030F4883031F1893009F040C0C5
:100E400026C08C3091F18C3060F18E30C9F533C002
:100E5000809180008F7703C0809180008F7D809388
:100E60008000089584B58F7702C084B58F7D84BDDE
:100E700008958091B0008F7703C08091B0008F7D7E
:100E80008093B0000895809190008F7707C0809183
:100E900090008F7D03C080919000877F80939000A9
:100EA00008958091C0008F7703C08091C0008F7D2E
:100EB0008093C00008958091C200877F8093C20014
:100EC0000895FF920F931F93F62E482F50E0CA010A
:100ED0008E5E9E4FFC012491CA018C509F4FFC01F5
:100EE00014914A525F4FFA0104910023C9F0222362
:100EF00019F0822F0E940307E02FF0E0EE0FFF1F92
:100F0000E654FF4FA591B4919FB7F894FF2021F4C8
:100F10008C911095812302C08C91812B8C939FBF63
:100F20001F910F91FF9008950F931F93482F50E04A
:100F3000CA018E5E9E4FFC012491CA018C509F4FC6
:100F4000FC0104914A525F4FFA011491112319F4E4
:100F500020E030E015C0222319F0822F0E94030701
:100F6000812F90E0880F991F88539F4FFC01A59116
:100F7000B4918C9120E030E0802311F021E030E04A
:100F8000C9011F910F910895089520910A0230918F
:100F90000B0280910C0290910D02281B390B2F73CC
:100FA0003070C901089520910A0230910B0280919E
:100FB0000C0290910D022817390719F42FEF3FEF1B
:100FC00009C0E0910C02F0910D02E653FE4F8081C2
:100FD000282F30E0C901089520910A0230910B02B8
:100FE00080910C0290910D022817390719F42FEF08
:100FF0003FEF13C0E0910C02F0910D02E653FE4F5B
:10100000208180910C0290910D0201968F73907057
:1010100090930D0280930C0230E0C9010895109264
:1010200011021092100288EE93E0A0E0B0E08093ED
:10103000120290931302A0931402B09315028DE252
:1010400091E090930F0280930E0208950F931F93E7
:10105000DF93CF930F92CDB7DEB78C016983809178
:101060002601882369F083E0BE016F5F7F4F41E076
:1010700050E00E94080A1816190614F49C0107C0D3
:1010800081E090E0F8019383828320E030E0C901A1
:101090000F90CF91DF911F910F91089583E00E94EF
:1010A000DF090895CF93DF9312C082E00E946A099E
:1010B0002FEF8F3F9207C9F0E0910A02F0910B02E7
:1010C000E653FE4F8083D0930B02C0930A02C09177
:1010D0000A02D0910B022196CF73D07080910C023E
:1010E00090910D02C817D90701F7DF91CF910895AC
:1010F000FC0180818E5F808380E86EE271E042E4D3
:1011000050E00E9483090895FC0181819081913A09
:1011100059F4813209F04CC080E06FE171E047E0A2
:1011200050E00E94830942C0913209F041C08032F0
:1011300039F48FE191E067E070E00E94C70936C0A2
:10114000823209F035C082818093260180911F018F
:1011500090912001A0912101B0912201805B9440E7
:10116000A040B04019F58091260180FD12C087E7AC
:1011700097E790930108809300082BE088E190E0C6
:101180000FB6F894A895809360000FBE209360007E
:101190000DC088E10FB6F894809360001092600053
:1011A0000FBEA895109201081092000881E00895E2
:1011B00080E00895CF93DF930E94FC0584E292E0E3
:1011C0000E94EA090E946F05C0E0D0E00E94150568
:1011D0002097E1F30E940000F9CFCF92DF92EF92C7
:1011E000FF920F931F93CF93DF937C016B018A01D2
:1011F000C0E0D0E00FC0D6016D916D01D701ED9137
:10120000FC910190F081E02DC7010995C80FD91F0D
:10121000015010400115110571F7CE01DF91CF91FA
:101220001F910F91FF90EF90DF90CF900895CF9393
:10123000DF93EC016115710519F420E030E00FC077
:10124000DB010D900020E9F71197A61BB70BE88191
:10125000F9810280F381E02DAD0109959C01C9015E
:10126000DF91CF9108950E9417090895282F80914A
:101270001E028823C1F057FF1AC015C0289890930A
:101280001D028091F1008193E217F307B9F7411530
:10129000510539F08091F200882319F48BE6809390
:1012A000E800AFBF02C04FEF5FEFCA010895AFB7CC
:1012B000F89427702093E9008091F200282F30E005
:1012C000241735070CF4A901FB019B01240F311DE4
:1012D00094E6DACFDF93CF930F92CDB7DEB7BE019E
:1012E0006F5F7F4F41E050E00E943609019719F08F
:1012F0002FEF3FEF03C08981282F30E0C9010F9005
:10130000CF91DF910895FF920F931F93F82E142F22
:10131000052F4091210250912202212F302FC90127
:10132000DC01FB016EEF29C0F7FE02C0949101C001
:10133000908120911F023091200224173507ACF4D0
:101340008091E8008570E1F38091E80082FF03C09E
:101350002FEF3FEF17C09093F100C90101968F73F3
:101360009070892B11F46093E8002F5F3F4F30930A
:10137000200220931F02119731961097A9F6812F12
:10138000902F9C01C9011F910F91FF9008959C011E
:101390008091E80082FFFCCFF901260F311D03C0C8
:1013A0008091F1008193E217F307D1F7289884E642
:1013B00080931D028BEF8093E800CB01089580930A
:1013C000E9008091F200882319F08AE38093E80015
:1013D0000895089510921E0281E08093D70080EA5C
:1013E0008093D80082E189BD09B400FEFDCF61E0A1
:1013F00070E080E090E00E945C0680E98093D80075
:101400008CE08093E2001092E000559A209A0895B3
:101410005F926F927F928F929F92AF92BF92CF9284
:10142000DF92EF92FF920F931F93CF93DF93E82EFB
:10143000842E752E80911E02882371F18B01242F3A
:10144000352FC901EC017AEFF72E67E0962E9E202A
:1014500050E4552E8E2D90E040E2A42EB12CA8220F
:10146000B9223AE3632E20E4C22ED12CC822D9221D
:1014700058C09FB7F8949092E9008091E80085FDEC
:1014800002C020E004C08091F200252D281B9FBFE0
:10149000222361F4FA9419F42FEF3FEF4DC061E07D
:1014A00070E080E090E00E945C063BC0822F90E0FC
:1014B000C817D9070CF42C2FC21BD1094FB7F894C9
:1014C0009092E900A114B10421F406C01092F10039
:1014D00021502223D9F719C0E7FC03C0F801922F4D
:1014E00010C0C801322F06C0FC010196E491E093C0
:1014F000F10031503323C1F706C081918093F10090
:1015000091509923D1F7020F111D8091E80085FFBA
:1015100005C0209729F4C114D10411F06092E800AD
:101520004FBF209709F0A5CF5D9884E680931C02F9
:10153000282D372DC9019C01C901DF91CF911F9141
:101540000F91FF90EF90DF90CF90BF90AF909F9062
:101550008F907F906F905F9008951F920F920FB6BB
:101560000F9211242F933F934F935F936F937F9329
:101570008F939F93AF93BF93EF93FF938091E1007D
:101580001092E100982F83FF0FC01092E90081E0D4
:101590008093EB001092EC0082E38093ED001092B8
:1015A0001E0288E08093F00092FF34C083E08093B5
:1015B000E9008091F200882319F08AE38093E80023
:1015C0008FB7F89492E09093E9009091F2008FBF6A
:1015D000992321F08EE092E00E94520880911C0233
:1015E000882351F080911C02815080931C028091CD
:1015F0001C02882309F45D9A80911D02882351F012
:1016000080911D02815080931D0280911D028823CC
:1016100009F4289AFF91EF91BF91AF919F918F911B
:101620007F916F915F914F913F912F910F900FBEDE
:101630000F901F9018950F931F93DF93CF930F92E6
:10164000CDB7DEB719828E010F5F1F4FC8010E9410
:101650007808C8010E94B50D898190E00F90CF9164
:10166000DF911F910F9108951F920F920FB60F9265
:101670001124EF92FF921F932F933F934F935F9309
:101680006F937F938F939F93AF93BF93EF93FF934A
:10169000DF93CF93CDB7DEB76197DEBFCDBF10929A
:1016A000E9008091E80083FF0FC1FE0131969E01A1
:1016B000275F3F4F03C08091F1008193E217F3074A
:1016C000D1F7289884E680931D0282EF8093E8008A
:1016D000998197FF05C08091E80080FFFCCF03C08F
:1016E0008EEF8093E800292F30E0C901807690705A
:1016F000892B09F0C2C08A81882329F41092F10055
:101700001092F100D6C0813009F4D3C0833009F4BF
:10171000D0C0853049F48091E80080FFFCCF8B81F8
:1017200080688093E300C5C0863009F07CC01C81CE
:10173000EF80F8841230C1F51092E9001092200277
:1017400010921F0210922202109221020E941B0B83
:1017500099E0FE013996DF01292F1D922A95E9F7BC
:1017600099871A8791E09E8790E8988B9AEF998BDA
:1017700020911F0230912002275F3F4F3C872B872B
:101780008D871092E9001092200210921F02F092B1
:101790002202E092210280E0BF0149E050E00E9475
:1017A00083090E941B0B85C01092E9001092200251
:1017B00010921F02F0922202E0922102123241F4B2
:1017C00082E290E00E94AD0D892B09F476C071C0D1
:1017D000113079F488E0E816F10419F481E080937F
:1017E000230280912302882309F06BC0EEEAF1E026
:1017F00013C0133009F061C08B81882319F4E0E72E
:10180000F1E00AC0823019F4E4E7F1E005C081306C
:1018100009F053C0E6E9F1E0449180E8BF0150E0EF
:101820000E94830946C0873009F447C0883021F4FC
:1018300081E08093F1003DC08930D9F5237030708C
:10184000232BD9F5E3EDF1E091E031E026E390932D
:10185000E9003093EB0084918093EC002093ED003D
:101860009F5F3196953099F78EE78093EA0010924A
:10187000EA008B8180931E021CC08F819885109294
:10188000E9001092200210921F029093220280938E
:1018900021028D81882329F4CE0101960E948408BB
:1018A00006C0823051F4CE0101960E947E0C88233E
:1018B00021F08EEF8093E80007C081E28093EB0077
:1018C00003C0E0ECF1E0A8CF6196DEBFCDBFCF91C1
:1018D000DF91FF91EF91BF91AF919F918F917F9198
:1018E0006F915F914F913F912F911F91FF90EF90DA
:1018F0000F900FBE0F901F9018950895FC019181D5
:101900008081813A31F4913089F080E0933089F41C
:101910000DC0813269F49B3021F4828180932701CC
:1019200005C09A3029F482818093280181E00895CE
:1019300080E00895EF92FF920F931F938C01E62EA3
:10194000DC01ED91FC910480F581E02D0995F82EE4
:10195000D801ED91FC910680F781E02DC8016E2D34
:1019600009958F2D90E01F910F91FF90EF900895B2
:101970001092250210922902109228028FE391E022
:1019800090932702809326020895EF92FF920F937F
:101990001F93DF93CF930F92CDB7DEB789838B016F
:1019A0007A0184E0BE016F5F7F4F41E050E00E940A
:1019B000080A84E4B801A7010E94080A0F90CF9199
:1019C000DF911F910F91FF90EF90089582E048E022
:1019D00050E00E94C50C0895FC0116821782108603
:1019E00011861286138614823496BF010E94E60C7B
:1019F0000895DC01683810F0685829C0E62FF0E03F
:101A000067FF13C0E058F04081E090E002C0880F0B
:101A1000991FEA95E2F7809514962C911497282344
:101A200014962C93149760E012C0EB5AFD4F64910A
:101A3000662319F420E030E01DC067FF08C014964B
:101A40008C9114978D7F14968C9314976F77FD016A
:101A500090E0662321F08681861709F416829F5F45
:101A600031969630B1F7CD011496BD010E94E60C77
:101A700021E030E0C9010895CF93DF93DC0168389D
:101A800010F0685825C0E62FF0E067FF12C0E0585C
:101A9000F04081E090E002C0880F991FEA95E2F7DC
:101AA00014962C911497282B14962C93149760E07D
:101AB0000FC0EB5AFD4F64916623D9F167FF08C050
:101AC00014968C911497826014968C9314976F7768
:101AD00016968C9116978617A9F117968C911797E1
:101AE000861781F118968C911897861759F11996D7
:101AF0008C911997861731F11A968C911A9786173F
:101B000009F11B968C911B978617E1F0ED01E0E03F
:101B1000F0E09E2F8E81882321F4EA0FFB1F66835D
:101B200006C09F5F31962196E630F10591F7963019
:101B300049F481E090E013969C938E93129720E0F5
:101B400030E007C0CD011496BD010E94E60C21E0F3
:101B500030E0C901DF91CF91089580E867ED71E031
:101B600045E650E00E9483090895FC0180818F5F63
:101B7000808380E86CE372E049E150E00E948309D1
:101B80000895EE0FFF1F0590F491E02D0994F8944D
:021B9000FFCF85
:101B9200504253502076313A000D0A0050425350C1
:101BA2002076313A00401FB80BE80376310000007E
:101BB200E10000000000000101000000002608ED25
:101BC20008C507EC07D3074E085208000000009A28
:0A1BD2000CED083C0DF90CEC0C00C2
:00000001FF
