:100000000C9463000C94A7070C94D4070C948B00F9
:100010000C948B000C948B000C948B000C948B0034
:100020000C948B000C948B000C948B000C948B0024
:100030000C948B000C948B000C948B000C948B0014
:100040000C9401080C948B000C9426090C947409F0
:100050000C948B000C948B000C948B000C948B00F4
:100060000C948B000C948B000000000024002700EF
:100070002A0000000000250028002B0000000000DE
:1000800023002600290004040404040404040202DA
:100090000202020203030303030301020408102007
:1000A0004080010204081020010204081020000012
:1000B0000007000201000003040600000000000029
:1000C0000000D901E00A11241FBECFEFD8E0DEBF47
:1000D000CDBF11E0A0E0B1E0EEEAFCE102C0059086
:1000E0000D92A838B107D9F713E0A8E8B1E001C034
:1000F0001D92A437B107E1F710E0C6ECD0E004C0D0
:100100002297FE010E94510EC23CD107C9F70E94FE
:10011000360B0C94550E0C940000FB01DC0102C060
:1001200001900D9241505040D8F70895FB01DC0139
:1001300001900D920020E1F70895FB01DC01415090
:10014000504030F08D910190801919F40020B9F7DA
:10015000881B990B0895FC01128211821082089568
:10016000FC011282118210820895CF93DF93EC017B
:100170008A81FE01E80FF11D63838F5FFE01E80FA6
:10018000F11D43838F5F8A8350E060E070E00CC014
:10019000FE01E90FF11DD901A60FB71F8C918383D2
:1001A0009F5F9A836F5F7F4F641775071CF49A8176
:1001B000903770F3DF91CF910895CF93DF93DC01F7
:1001C000EA0112964C91129790E012C0292F30E06C
:1001D000FD01E20FF31F8381861739F4F90133968D
:1001E000EA0FFB1F309749F411C084818E5F980F8E
:1001F000941760F4903750F309C0828193819983FA
:10020000888380E0CD2B19F081E001C080E0DF9190
:10021000CF910895CF93DF93EC0120E030E00CC044
:10022000FE01E90FF11DDB01A20FB31F8C91838347
:100230009F5F9A832F5F3F4F241735071CF49A81E5
:10024000903770F3DF91CF910895EF92FF920F9363
:100250001F937C010EE413E0BC017070C8010E9482
:10026000A00AC8016F2D0E94A00A1F910F91FF9054
:10027000EF900895CF92DF92EF92FF920F931F932A
:10028000CF93DF937C018EE493E060E071E00E9405
:100290008B0BF701808191810E942501F7018081FC
:1002A000918101E216E70827002E0295007F0025C4
:1002B000012E102F02950F7000260695102701279A
:1002C000000F000F000F00250927002E0295007F68
:1002D0000025012E102F02950F700026069510277D
:1002E0000127000F000F000F0025828190E00E947F
:1002F0002501F70182810827002E0295007F002545
:10030000012E102F02950F70002606951027012749
:10031000000F000F000F002580E00827002E029537
:10032000007F0025012E102F02950F7000260695E4
:1003300010270127000F000F000F0025E701CC2434
:10034000DD241AC08EE493E06A810E94A00A8A81AB
:100350000827002E0295007F0025012E102F029500
:100360000F700026069510270127000F000F000FC1
:1003700000250894C11CD11C2196F701828190E0D0
:10038000C816D906FCF2C8010E9425018EE493E04C
:100390006DE00E94A00A8EE493E06AE00E94A00A49
:1003A000DF91CF911F910F91FF90EF90DF90CF9051
:1003B000089582E492E00E94AB0088E991E00E94F7
:1003C0006E07089583E0E5EBF2E0DF011D928A9568
:1003D000E9F782E492E00E94B0000895CF92DF92A4
:1003E000EF92FF920F931F93DF93CF93CDB7DEB7BA
:1003F000C157D0400FB6F894DEBF0FBECDBF8EE41C
:1004000093E00E94360A89838091B702882309F01D
:10041000C6C08091B502883008F124C08EE493E014
:100420000E94670A282F8981815089839091B502A3
:10043000E92FF0E0E45FFE4F8081281739F4892F1F
:100440008F5F8093B502883051F40CC0203519F4C9
:100450001093B50204C01092B50201C011E0898169
:100460008823E1F68091B5028C3058F5898184307B
:1004700008F495C08EE493E00E94670A8C018EE434
:1004800093E00E94670A382F20E0202B312B309315
:100490004302209342028EE493E00E94670A182FE1
:1004A0008EE493E00E94670A1093B602898184501B
:1004B00089838091B5028C5F8093B502113708F073
:1004C00065C08981882309F46AC08091B5028C30A7
:1004D00008F465C05EC08981481710F0F98001C03A
:1004E000F42E92E0C92ED12CCC0EDD1E8F2D90E083
:1004F0009C01890107C08EE493E00E94670AF6011F
:1005000081936F0101501040FFEF0F3F1F0799F7D4
:1005100082E492E0BE016E5F7F4F4F2D50E00E945B
:100520000A018091B6028F198093B60289818F19D2
:1005300089838091B602882391F58091B702882340
:1005400071F58981843058F18E010E5F1F4F78015B
:1005500086E0C82ED12CCC0EDD1E07C08EE493E0C1
:100560000E94670AF80181938F010C151D05B1F7F0
:10057000C701029669E071E042E050E00E949D00F0
:10058000009721F481E08093B70209C00E94E20144
:1005900006C04091B602442309F09DCFCACFCF5880
:1005A000DF4F0FB6F894DEBF0FBECDBFCF91DF9106
:1005B0001F910F91FF90EF90DF90CF9008950F93D0
:1005C0001F93DF93CF93CDB7DEB727970FB6F8947D
:1005D000DEBF0FBECDBF8E010F5F1F4FC80165E1AB
:1005E00071E00E94F70BC8010E94110C10928D015E
:1005F00027960FB6F894DEBF0FBECDBFCF91DF9127
:100600001F910F9108950F931F93DF93CF93CDB751
:10061000DEB727970FB6F894DEBF0FBECDBF8E01B1
:100620000F5F1F4FC80163E271E00E94F70BC80122
:100630000E94110C209165013091660140E050E06C
:1006400088E991E065E001E00E941B07992787FD9A
:100650009095909391018093900127960FB6F8940E
:10066000DEBF0FBECDBFCF91DF911F910F910895D7
:100670000F931F9308E911E0C80160918E010E9459
:10068000A106C801609190010E94A106C801609175
:1006900092010E94A106C801609194010E94A106E6
:1006A000C801609196010E94A1061F910F910895C3
:1006B0000F931F93DF93CF93CDB7DEB727970FB676
:1006C000F894DEBF0FBECDBF8E010F5F1F4FC80174
:1006D00064E371E00E94F70BC8010E94110C0E94B4
:1006E000380310928C0127960FB6F894DEBF0FBE28
:1006F000CDBFCF91DF911F910F9108950F931F935D
:10070000DF93CF93CDB7DEB727970FB6F894DEBF50
:100710000FBECDBF8E010F5F1F4FC8016EE371E0AA
:100720000E94F70BC8010E94110C0E94380386E05A
:1007300060E00E94D10885E060E00E94D10810923C
:100740008C0110928D0127960FB6F894DEBF0FBE74
:10075000CDBFCF91DF911F910F910895EF92FF923E
:100760000F931F93DF93CF93CDB7DEB72E970FB6BE
:10077000F894DEBF0FBECDBF0E9449089B01AC01BB
:100780008091880190918901A0918A01B0918B019B
:1007900079018A01E81AF90A0A0B1B0BD801C70173
:1007A0008A3F9105A105B10508F484C02093880112
:1007B0003093890140938A0150938B018E010F5F22
:1007C0001F4FC80167E471E00E94F70BC8010E9447
:1007D000110C80918D01882309F06CC080918C01EF
:1007E000882311F00E947E038E01085F1F4FC8010D
:1007F00061E571E00E94F70BC8010E94110C81E0D5
:1008000080938C0180938D0120916301309164016C
:1008100040E050E088E991E066E001E00E941B07BB
:10082000992787FD909590938F0180938E01409139
:100830006301509164014C595F4F60E070E088E9BA
:1008400091E023E033E00E946507992787FD9095AA
:1008500090939301809392014091670150916801B8
:1008600060E070E088E991E02FED32E00E946507DA
:10087000992787FD909590939501809394014091DD
:100880006301509164018091650190916601480F68
:10089000591F48535F4F60E070E088E991E028E518
:1008A00033E00E946507992787FD90959093970103
:1008B000809396012E960FB6F894DEBF0FBECDBF83
:1008C000CF91DF911F910F91FF90EF900895EF92DC
:1008D000FF920F931F93DF93CF93CDB7DEB7C3572C
:1008E000D0400FB6F894DEBF0FBECDBF8E010F5FB4
:1008F0001F4FC8010E94AB0080E290E09A83898379
:1009000023E6E22E21E0F22EC80161E042E09701E9
:100910000E94B50082E090E0E80EF91EC80162E096
:1009200042E097010E94B50082E090E0E80EF91ED7
:10093000C80163E042E097010E94B50082E090E0C8
:10094000E80EF91EC80164E042E097010E94B5007C
:1009500082E090E0E80EF91EC80165E042E09701F0
:100960000E94B500C8010E943A01CD58DF4F0FB672
:10097000F894DEBF0FBECDBFCF91DF911F910F91D5
:10098000FF90EF9008950F931F93DF93CF93CDB710
:10099000DEB7C557D0400FB6F894DEBF0FBECDBF4F
:1009A00083E090E09A8389838E010D5F1F4FC80119
:1009B0000E94AB0081E090E09C838B83C80161E0E2
:1009C00042E09E012F5F3F4F0E94B500C8010E9488
:1009D0003A01CB58DF4F0FB6F894DEBF0FBECDBF44
:1009E000CF91DF911F910F910895CF93DF93C0E2D4
:1009F000D0E0FE01ED5BFE4F88EB92E0BE0140814E
:100A00000E94470688EB92E0BE010E9440062196B4
:100A1000CE32D10571F7DF91CF910895DF93CF9357
:100A2000CDB7DEB72A970FB6F894DEBF0FBECDBFA5
:100A300082E492E061E0AE014F5F5F4F0E94DD0013
:100A4000882309F44BC082E492E062E0AE014D5F7E
:100A50005F4F0E94DD00882309F440C082E492E0E9
:100A600063E0AE014B5F5F4F0E94DD008823B1F170
:100A700082E492E064E0AE01495F5F4F0E94DD00D6
:100A8000882361F182E492E065E0AE01475F5F4F49
:100A90000E94DD00882311F189819A81909364017D
:100AA000809363018B819C819093660180936501A3
:100AB0008D819E8190936801809367018F819885D5
:100AC00090936A018093690189859A8590936C015E
:100AD00080936B010E94F5040E9467042A960FB66A
:100AE000F894DEBF0FBECDBFCF91DF910895809106
:100AF000B7028823B9F0809142029091430280327C
:100B0000910561F08138910519F0409749F403C0CF
:100B10000E94C30405C00E94670402C00E940E0523
:100B20000E94E20108950E94EE010E94770588E983
:100B300091E00E94B0060895CF93DF9388EB92E096
:100B40006DE270E00E94400690E020917001332732
:100B500027FD309582179307E9F588EB92E06CE268
:100B600070E00E94400690E020916F01332727FD3E
:100B700030958217930771F588EB92E06BE270E095
:100B80000E94400690E020916E01332727FD3095AA
:100B900082179307F9F488EB92E06AE270E00E9412
:100BA000400690E020916D01332727FD3095821794
:100BB000930781F4C0E2D0E088EB92E0BE010E948E
:100BC0004006FE01ED5BFE4F80832196CE32D105BB
:100BD00099F702C00E94F504DF91CF91089583E058
:100BE000E5EBF2E0DF011D928A95E9F70E949C0592
:100BF00081E161E00E94920886E061E00E94920833
:100C000085E061E00E94920883E060E00E94920823
:100C100086E060E00E94D10885E060E00E94D10893
:100C200083E061E00E94D10881E161E00E94D10887
:100C30008EE493E040E855E260E070E00E94AF0986
:100C40000E94C30410928C01109297011092960199
:100C500010929501109294011092930110929201BA
:100C6000109291011092900110928F0110928E01BA
:100C700080E06EEA73E042E050E00E94840708954D
:100C8000F999FECF72BD61BDF89A80B50895F999C2
:100C9000FECF1FBA72BD61BD40BD0FB6F894FA9A7F
:100CA000F99A0FBE0895FC0110820895EF92FF9209
:100CB0000F931F93CF93DF93EC010E9449087B01B0
:100CC0008C018B859C85AD85BE85A8019701281B6D
:100CD000390B4A0B5B0B89819A81AB81BC81281748
:100CE00039074A075B07E0F08881813019F08230CC
:100CF00071F404C0E985FA85099509C060E088852A
:100D0000882309F461E068878F810E94D108EB860F
:100D1000FC860D871E878F8598890196988B8F8713
:100D20002D813E8137FD06C08F85988982179307F4
:100D30000CF01882DF91CF911F910F91FF90EF90EF
:100D40000895772767FD7095FB0124E0EE0FFF1FE4
:100D50002A95E1F7E60FF71FE80FF91F10820895B3
:100D6000EF92FF920F931F93CF93DF937C018C013F
:100D7000C0E0D0E0F8018081882361F0CE0134E04A
:100D8000880F991F3A95E1F78C0F9D1F8E0D9F1DBF
:100D90000E94560621960F5E1F4FCA30D10551F7AB
:100DA000DF91CF911F910F91FF90EF900895DF9207
:100DB000EF92FF920F931F93DC01762F602FFC01BF
:100DC000DD248081882341F0D39471968AE0D8167F
:100DD000C1F7DD24DA9428C08D2D992787FD9095E1
:100DE0008C01E4E0000F111FEA95E1F7080F191FCD
:100DF0000A0F1B1F82E0F8018083778321833283EF
:100E0000438354836087872F0E94D108EE0CFF1C18
:100E1000F801F682E5820E944908F8016387748729
:100E200085879687108A17868D2D1F910F91FF90C9
:100E3000EF90DF900895EF92FF920F93F1E0EF2E85
:100E4000F12C0E94D7060F91FF90EF900895FF922A
:100E50000F931F93CF93DF93DC01E9019801FC010D
:100E6000FF248081882341F0F39471968AE0F8167C
:100E7000C1F7FF24FA9422C08F2D992787FD909502
:100E80008C01E4E0000F111FEA95E1F7080F191F2C
:100E90000A0F1B1F81E0F801808341835283638323
:100EA000748336832583D287C1870E944908F8015D
:100EB0006387748785879687108A17868F2DDF91C1
:100EC000CF911F910F91FF9008950F931F9301E011
:100ED00010E00E9427071F910F9108950F931F9311
:100EE000CF93DF93EC0100E010E0CE01800F911F63
:100EF0000E9453060F5E1F4F0A3A1105B1F7DF91AA
:100F0000CF911F910F910895823000F5E82FF0E006
:100F1000EE0FFF1FE754FD4F71836083882319F0A4
:100F20008130A1F408C0809169008C7F842B80936C
:100F30006900E89A089580916900440F551F440F95
:100F4000551F837F842B80936900E99A08951F922F
:100F50000F920FB60F9211242F933F934F935F93ED
:100F60006F937F938F939F93AF93BF93EF93FF9371
:100F70008091B9029091BA02892B29F0E091B902CF
:100F8000F091BA020995FF91EF91BF91AF919F91B6
:100F90008F917F916F915F914F913F912F910F9022
:100FA0000FBE0F901F9018951F920F920FB60F92C1
:100FB00011242F933F934F935F936F937F938F935E
:100FC0009F93AF93BF93EF93FF938091BB02909158
:100FD000BC02892B29F0E091BB02F091BC0209957B
:100FE000FF91EF91BF91AF919F918F917F916F9101
:100FF0005F914F913F912F910F900FBE0F901F90D7
:1010000018951F920F920FB60F9211242F933F93B2
:101010008F939F93AF93BF938091C1029091C2022F
:10102000A091C302B091C4023091C5020196A11DE6
:10103000B11D232F2D5F2D3720F02D570196A11DB7
:10104000B11D2093C5028093C1029093C202A09368
:10105000C302B093C4028091BD029091BE02A091E0
:10106000BF02B091C0020196A11DB11D8093BD02C7
:101070009093BE02A093BF02B093C002BF91AF9104
:101080009F918F913F912F910F900FBE0F901F90C6
:1010900018958FB7F8942091C1023091C202409107
:1010A000C3025091C4028FBFB901CA010895789458
:1010B00084B5826084BD84B5816084BD85B582605D
:1010C00085BD85B5816085BDEEE6F0E080818160FB
:1010D0008083E1E8F0E010828081826080838081FB
:1010E00081608083E0E8F0E0808181608083E1EBD3
:1010F000F0E0808184608083E0EBF0E080818160BB
:101100008083EAE7F0E08081846080838081826070
:101110008083808181608083808180688083109259
:10112000C1000895CF93DF93482F50E0CA0186563F
:101130009F4FFC0134914A575F4FFA0184918823F5
:1011400069F190E0880F991FFC01E859FF4FA591C4
:10115000B491FC01EE58FF4FC591D491662351F430
:101160002FB7F8948C91932F909589238C93888135
:1011700089230BC0623061F42FB7F8948C91932FC0
:10118000909589238C938881832B88832FBF06C0F9
:101190009FB7F8948C91832B8C939FBFDF91CF9155
:1011A0000895482F50E0CA0182559F4FFC012491B9
:1011B000CA0186569F4FFC0194914A575F4FFA012E
:1011C0003491332309F440C0222351F1233071F0CC
:1011D000243028F42130A1F0223011F514C026303B
:1011E000B1F02730C1F02430D9F404C080918000E0
:1011F0008F7703C0809180008F7D8093800010C026
:1012000084B58F7702C084B58F7D84BD09C080917D
:10121000B0008F7703C08091B0008F7D8093B000C5
:10122000E32FF0E0EE0FFF1FEE58FF4FA591B491B2
:101230002FB7F894662321F48C919095892302C0EE
:101240008C91892B8C932FBF089508951F920F9234
:101250000FB60F9211242F933F934F938F939F9329
:10126000EF93FF938091C00082FD1DC04091C600A6
:1012700020910603309107032F5F3F4F2F7330708B
:1012800080910803909109032817390771F0E091C4
:101290000603F0910703EA53FD4F408330930703A1
:1012A0002093060302C08091C600FF91EF919F91A9
:1012B0008F914F913F912F910F900FBE0F901F90E4
:1012C0001895E0915A03F0915B03E05CFF4F819128
:1012D000919120813181821B930B8F739070892BA8
:1012E00011F00E94250908951F920F920FB60F92D8
:1012F00011242F933F938F939F93EF93FF9320910C
:101300004A0330914B0380914C0390914D03281771
:10131000390731F48091C1008F7D8093C10014C0E2
:10132000E0914C03F0914D03E65FFC4F20818091EA
:101330004C0390914D0301968F73907090934D03E1
:1013400080934C032093C600FF91EF919F918F9162
:101350003F912F910F900FBE0F901F901895AF9255
:10136000BF92DF92EF92FF920F931F93CF93DF9381
:10137000EC017A018B01DD24403081EE580780E0DA
:10138000680780E0780711F0DD24D39491E0A92E5E
:10139000B12CEC89FD89DD2069F0C50108A002C0EF
:1013A000880F991F0A94E2F7808360E079E08DE36B
:1013B00090E005C0108260E874E88EE190E0A8013A
:1013C00097010E942D0E21503040404050405695CC
:1013D00047953795279580E12030380720F0DD20AC
:1013E00011F0DD24D6CFE889F9893083EA89FB89B9
:1013F000208319A2EE89FF89408121E030E0C901F4
:101400000C8C02C0880F991F0A94E2F7482B408386
:10141000EE89FF894081C9010D8C02C0880F991F98
:101420000A94E2F7482B4083EE89FF894081C90185
:101430000E8C02C0880F991F0A94E2F7482B408354
:10144000EE89FF8980810F8C02C0220F331F0A941E
:10145000E2F7209528232083DF91CF911F910F91F0
:10146000FF90EF90DF90BF90AF900895DC011C9645
:10147000ED91FC911D97E05CFF4F219131918081AE
:101480009181281B390B2F733070C9010895DC013D
:101490001C96ED91FC911D97E05CFF4F20813181FE
:1014A000E054F040DF01AE5BBF4F8D919C911197EE
:1014B0002817390719F42FEF3FEF07C08D919C9142
:1014C000E80FF91F8081282F30E0C9010895DC0161
:1014D0001C96ED91FC911D97E05CFF4F20813181BE
:1014E000E054F040DF01AE5BBF4F8D919C911197AE
:1014F0002817390719F42FEF3FEF10C08D919C91F9
:101500001197E80FF91F20818D919C9111970196F9
:101510008F73907011969C938E9330E0C90108955B
:10152000DC0191968C919197882339F05496ED9136
:10153000FC915597808186FFF9CF91961C92089572
:10154000CF93DF93EC01EE85FF85E05CFF4F2081B8
:101550003181E054F0402F5F3F4F2F733070DF0137
:10156000AE5BBF4F8D919C91119728173907D1F32E
:10157000E05CFF4F80819181E054F040E80FF91F5B
:101580006083EE85FF85E05CFF4F31832083EE8929
:10159000FF89208181E090E00F8C02C0880F991FA5
:1015A0000A94E2F7282B208381E089A3EC89FD8946
:1015B00080818064808381E090E0DF91CF91089505
:1015C000109251031092500388EE93E0A0E0B0E037
:1015D0008093520390935303A0935403B093550305
:1015E0008BE791E090934F0380934E0386EC92E05B
:1015F00090935B0380935A038AE093E090935D039A
:1016000080935C0385EC90E090935F0380935E038E
:1016100084EC90E0909361038093600380EC90E011
:10162000909363038093620381EC90E09093650351
:101630008093640382EC90E0909367038093660349
:1016400086EC90E0909369038093680384E0809334
:101650006A0383E080936B0387E080936C0385E0EB
:1016600080936D0381E080936E030895CF93DF93A1
:101670000E9457080E94EF05C1E6D9E00E94930539
:101680002097E1F30E946109F9CFCF92DF92EF92A8
:10169000FF920F931F93CF93DF937C016B018A011D
:1016A000C0E0D0E00FC0D6016D916D01D701ED9182
:1016B000FC910190F081E02DC7010995C80FD91F59
:1016C000015010400115110571F7CE01DF91CF9146
:1016D0001F910F91FF90EF90DF90CF900895CF93DF
:1016E000DF93EC016115710519F420E030E00FC0C3
:1016F000DB010D900020E9F71197A61BB70BE881DD
:10170000F9810280F381E02DAD0109959C01C901A9
:10171000DF91CF9108950E946F0B08950F931F934F
:10172000CF93DF93EC018B016F5F7F4F88819981AD
:101730000E944C0D009711F480E005C099838883C6
:101740001B830A8381E0DF91CF911F910F91089550
:10175000CF93DF93EC0188819981892B29F08A81CD
:101760009B818617970760F4CE010E948E0B882319
:1017700041F08C819D81892B19F4E881F9811082D7
:1017800081E0DF91CF910895CF93DF93EC018881C1
:101790009981009711F00E94B40C198218821D8261
:1017A0001C821B821A82DF91CF910895EF92FF92E3
:1017B0000F931F93CF93DF93EC017B018A01BA0152
:1017C0000E94A80B882321F4CE010E94C40B07C0FD
:1017D0001D830C8388819981B7010E949600CE01F8
:1017E000DF91CF911F910F91FF90EF900895CF93CC
:1017F000DF93EC01198218821B821A821D821C82DF
:101800001E826115710551F0DB010D900020E9F792
:101810001197A61BB70BAD010E94D60BDF91CF919C
:101820000895FC01808191810E94B40C08950F936A
:101830001F93CF93DF93BC018230910510F462E0D7
:1018400070E0E0917203F091730340E050E0A0E09B
:10185000B0E024C08081918186179707D0F0861769
:10186000970771F482819381109729F013969C93C6
:101870008E9312972CC0909373038093720327C0AA
:101880004115510519F08417950718F48D01AC0125
:10189000EF01DF01828193819C01F9013097D1F63C
:1018A00041155105F9F0CA01861B970B843091054B
:1018B00080F48A819B810115110521F0F801938341
:1018C000828304C09093730380937203FE01329667
:1018D00045C0FE01E80FF91F619371930297998348
:1018E00088833CC08091700390917103892B41F4EF
:1018F00080917301909174019093710380937003B0
:1019000040917501509176014115510541F44DB753
:101910005EB78091710190917201481B590B209123
:1019200070033091710324173507B0F4CA01821B8C
:10193000930B8617970780F0AB014E5F5F4F8417BC
:10194000950750F0420F531F50937103409370035B
:10195000F9016193719302C0E0E0F0E0CF01DF9103
:10196000CF911F910F910895CF93DF939C01009722
:1019700009F48FC0EC0122971B821A8260917203D6
:10198000709173036115710581F488819981820FCB
:10199000931F20917003309171032817390739F58F
:1019A000D0937103C093700374C0DB0140E050E03A
:1019B000AC17BD0708F1BB83AA83FE0121913191C9
:1019C000E20FF31FAE17BF0779F48D919C91119729
:1019D000280F391F2E5F3F4F3983288312968D9130
:1019E0009C9113979B838A834115510571F4D09381
:1019F0007303C09372034DC012968D919C911397FF
:101A0000AD01009711F0DC01D3CFDA011396DC931E
:101A1000CE931297FA0121913191E20FF31FCE1765
:101A2000DF0769F488819981280F391F2E5F3F4FA6
:101A3000FA01318320838A819B8193838283E0E052
:101A4000F0E0DB0112968D919C911397009719F0AD
:101A5000BC01FD01F6CFAB014E5F5F4FDB018D9105
:101A60009C91840F951F209170033091710328176A
:101A7000390779F4309729F41092730310927203A6
:101A800002C013821282425050405093710340931F
:101A90007003DF91CF9108956F927F928F929F9202
:101AA000AF92BF92CF92DF92EF92FF920F931F936C
:101AB000CF93DF938C01009729F4CB010E94170C80
:101AC0008C01BBC08EEFE82E8FEFF82EE00EF11EDA
:101AD0004801860E971E8E149F0408F4ACC0D701EF
:101AE0004D915C91119746175707B8F04530510555
:101AF00008F4A3C0CA0104978617970708F49DC08D
:101B000042505040461B570BF401419351936D9343
:101B10007C93CF010E94B40C90C05B01A41AB50A5B
:101B20003801640E751EA0917203B0917303E0E05A
:101B3000F0E0CC24DD2447C0A615B705A9F5CD916A
:101B4000DC911197CE0102968A159B0568F1CE01B2
:101B50008A199B09029612962C91129713963C9122
:101B6000059758F0F40122833383CA19DB09D18326
:101B7000C083D7016D937C9309C04E5F5F4F4C0FBC
:101B80005D1FF70151834083C901FC01C114D104D9
:101B900031F0D6011396FC93EE9312974EC0F0935A
:101BA0007303E093720349C08D919C911197E817DC
:101BB000F90708F4FC016D0112968C9112971396A7
:101BC0009C919C01D901109709F0B6CF80917003C8
:101BD0009091710386159705E9F4E617F707D0F49D
:101BE00020917501309176012115310541F42DB711
:101BF0003EB78091710190917201281B390B8216BA
:101C00009306C8F49092710380927003F701718378
:101C1000608313C0CB010E94170CEC01009759F0B0
:101C2000D7014D915C91B8010E948D00C8010E94BE
:101C3000B40C8E0102C000E010E0C801DF91CF912A
:101C40001F910F91FF90EF90DF90CF90BF90AF90DA
:101C50009F908F907F906F900895A1E21A2EAA1BFB
:101C6000BB1BFD010DC0AA1FBB1FEE1FFF1FA2174C
:101C7000B307E407F50720F0A21BB30BE40BF50B49
:101C8000661F771F881F991F1A9469F760957095D2
:101C9000809590959B01AC01BD01CF010895EE0F99
:0E1CA000FF1F0590F491E02D0994F894FFCFFA
:101CAE00504253502076313A000D0A0050425350A4
:101CBE002076313A0044656C61792074696D656FE8
:101CCE0075740054726967676572696E6720677212
:101CDE0065656E00436F6D706C657465640041627E
:101CEE006F7274696E6700547269676765726564B6
:101CFE00005374617274696E672073657175656ED9
:101D0E00636500401FB80BE8030000000076320048
:101D1E000080007403000000000000A00A450B368E
:081D2E000A670A470A900A0047
:00000001FF
