:100000000C9463000C948B000C948B000C948B006C
:100010000C948B000C948B000C948B000C948B0034
:100020000C948B000C948B000C948B000C948B0024
:100030000C948B000C948B000C948B000C948B0014
:100040000C94AD040C948B000C947F060C94CD069C
:100050000C948B000C948B000C948B000C948B00F4
:100060000C948B000C948B000000000024002700EF
:100070002A0000000000250028002B0000000000DE
:1000800023002600290004040404040404040202DA
:100090000202020203030303030301020408102007
:1000A0004080010204081020010204081020000012
:1000B0000007000201000003040600000000000029
:1000C0000000C901390811241FBECFEFD8E0DEBF00
:1000D000CDBF11E0A0E0B1E0E4E2F2E102C00590A2
:1000E0000D92A033B107D9F712E0A0E3B1E001C04F
:1000F0001D92AA35B107E1F710E0C6ECD0E004C0CC
:100100002297FE010E940C09C23CD107C9F70E9448
:100110008F080C9410090C940000FB01DC01415085
:10012000504030F08D910190801919F40020B9F7FA
:10013000881B990B0895FC01128211821082089588
:10014000FC011282118210820895CF93DF93EC019B
:100150008A81FE01E80FF11D63838F5FFE01E80FC6
:10016000F11D43838F5F8A8350E060E070E00CC034
:10017000FE01E90FF11DD901A60FB71F8C918383F2
:100180009F5F9A836F5F7F4F641775071CF49A8196
:10019000903770F3DF91CF910895CF93DF93DC0117
:1001A000EA0112964C91129790E012C0292F30E08C
:1001B000FD01E20FF31F8381861739F4F9013396AD
:1001C000EA0FFB1F309749F411C084818E5F980FAE
:1001D000941760F4903750F309C08281938199831A
:1001E000888380E0CD2B19F081E001C080E0DF91B1
:1001F000CF910895CF93DF93EC0120E030E00CC065
:10020000FE01E90FF11DDB01A20FB31F8C91838367
:100210009F5F9A832F5F3F4F241735071CF49A8105
:10022000903770F3DF91CF910895EF92FF920F9383
:100230001F937C0108E312E0BC017070C8010E94AA
:10024000F907C8016F2D0E94F9071F910F91FF90C8
:10025000EF900895CF92DF92EF92FF920F931F934A
:10026000CF93DF937C0188E392E060E071E00E942D
:10027000E408F701808191810E941501F7018081D6
:10028000918101E216E70827002E0295007F0025E4
:10029000012E102F02950F700026069510270127BA
:1002A000000F000F000F00250927002E0295007F88
:1002B0000025012E102F02950F700026069510279D
:1002C0000127000F000F000F0025828190E00E949F
:1002D0001501F70182810827002E0295007F002575
:1002E000012E102F02950F7000260695102701276A
:1002F000000F000F000F002580E00827002E029558
:10030000007F0025012E102F02950F700026069504
:1003100010270127000F000F000F0025E701CC2454
:10032000DD241AC088E392E06A810E94F9078A817D
:100330000827002E0295007F0025012E102F029520
:100340000F700026069510270127000F000F000FE1
:1003500000250894C11CD11C2196F701828190E0F0
:10036000C816D906FCF2C8010E94150188E392E084
:100370006DE00E94F90788E392E06AE00E94F907C5
:10038000DF91CF911F910F91FF90EF90DF90CF9071
:10039000089580E391E00E949B000895EF92FF9200
:1003A0000F931F937C0185E061E00E94D705002731
:1003B000F7FC0095102FC801B7010E94300585E0B9
:1003C00060E00E94D7051F910F91FF90EF90089574
:1003D000EF92FF920F931F937C0186E061E00E94F1
:1003E000D7050027F7FC0095102FC801B7010E9420
:1003F000300586E060E00E94D7051F910F91FF90C5
:10040000EF90089584E00E942B06892BA1F480913F
:100410001501909116010E94E801809117019091B9
:1004200018010E94CE016091190170911A0180E0BB
:1004300090E00E943005089583E0E3EAF1E0DF01F7
:100440001D928A95E9F780E391E00E94A00008954B
:10045000CF92DF92EF92FF920F931F93DF93CF9390
:10046000CDB7DEB7C157D0400FB6F894DEBF0FBE90
:10047000CDBF88E392E00E948F0789838091A50118
:10048000882309F0C6C08091A301883008F124C0F8
:1004900088E392E00E94C007282F898181508983D8
:1004A0009091A301E92FF0E0E45FFE4F80812817CF
:1004B00039F4892F8F5F8093A301883051F40CC0E9
:1004C000203519F41093A30104C01092A30101C0B8
:1004D00011E089818823E1F68091A3018C3058F5E1
:1004E0008981843008F495C088E392E00E94C007B7
:1004F0008C0188E392E00E94C007382F20E0202B77
:10050000312B309331012093300188E392E00E9437
:10051000C007182F88E392E00E94C0071093A4013F
:100520008981845089838091A3018C5F8093A3018A
:10053000113708F065C08981882309F46AC0809169
:10054000A3018C3008F465C05EC08981481710F0A3
:10055000F98001C0F42E92E0C92ED12CCC0EDD1E04
:100560008F2D90E09C01890107C088E392E00E94F2
:10057000C007F60181936F0101501040FFEF0F3F5C
:100580001F0799F780E391E0BE016E5F7F4F4F2D0B
:1005900050E00E94FA008091A4018F198093A40179
:1005A00089818F1989838091A401882391F5809195
:1005B000A501882371F58981843058F18E010E5F81
:1005C0001F4F780186E0C82ED12CCC0EDD1E07C04F
:1005D00088E392E00E94C007F80181938F010C1517
:1005E0001D05B1F7C701029669E071E042E050E0F5
:1005F0000E948D00009721F481E08093A50109C03D
:100600000E941C0206C04091A401442309F09DCF22
:10061000CACFCF58DF4F0FB6F894DEBF0FBECDBFA5
:10062000CF91DF911F910F91FF90EF90DF90CF90CE
:100630000895EF92FF920F931F93DF93CF93CDB75F
:10064000DEB7C357D0400FB6F894DEBF0FBECDBFA4
:100650008E010F5F1F4FC8010E949B0080E290E057
:100660009A83898325E1E22E21E0F22EC80161E020
:1006700042E097010E94A50082E090E0E80EF91E9A
:10068000C80162E042E097010E94A50082E090E08C
:10069000E80EF91EC80163E042E097010E94A50040
:1006A000C8010E942A01CD58DF4F0FB6F894DEBF73
:1006B0000FBECDBFCF91DF911F910F91FF90EF90B3
:1006C00008950F931F93DF93CF93CDB7DEB7C55730
:1006D000D0400FB6F894DEBF0FBECDBF82E090E0F1
:1006E0009A8389838E010D5F1F4FC8010E949B0072
:1006F00081E090E09C838B83C80161E042E09E0131
:100700002F5F3F4F0E94A500C8010E942A01CB58CD
:10071000DF4F0FB6F894DEBF0FBECDBFCF91DF9194
:100720001F910F910895CF93DF93C0E2D0E0FE01B7
:10073000EB50FF4F86EA91E0BE0140810E94A10488
:1007400086EA91E0BE010E949A042196CA32D10540
:1007500071F7DF91CF910895DF93CF9300D000D050
:1007600000D0CDB7DEB780E391E061E0AE014F5F2E
:100770005F4F0E94CD00882351F180E391E062E059
:10078000AE014D5F5F4F0E94CD00882301F180E3F1
:1007900091E063E0AE014B5F5F4F0E94CD00882384
:1007A000B1F089819A8190931601809315018B8114
:1007B0009C8190931801809317018D819E81909365
:1007C0001A01809319010E9493030E94190326962F
:1007D0000FB6F894DEBF0FBECDBFCF91DF91089565
:1007E0008091A5018823B9F0809130019091310169
:1007F0008032910561F08138910519F0409749F4F4
:1008000003C00E94610305C00E94190302C00E9438
:10081000AC030E941C0208950E9428020E94F0036B
:100820000E9402020895CF93DF9386EA91E069E285
:1008300070E00E949A0490E020911E01332727FD6A
:10084000309582179307E9F586EA91E068E270E057
:100850000E949A0490E020911D01332727FD3095D6
:100860008217930771F586EA91E067E270E00E94D3
:100870009A0490E020911C01332727FD30958217C0
:100880009307F9F486EA91E066E270E00E949A0428
:1008900090E020911B01332727FD309582179307A5
:1008A00081F4C0E2D0E086EA91E0BE010E949A04A1
:1008B000FE01EB50FF4F80832196CA32D10599F794
:1008C00002C00E949303DF91CF91089583E0E3EA91
:1008D000F1E0DF011D928A95E9F70E94130481E19E
:1008E00061E00E94980586E061E00E94980585E03D
:1008F00061E00E94980584E060E00E94980586E02F
:1009000060E00E94D70585E060E00E94D70584E0A2
:1009100061E00E94D70581E161E00E94D70588E38C
:1009200092E040E855E260E070E00E9408070E9413
:1009300061030895F999FECF72BD61BDF89A80B543
:100940000895F999FECF1FBA72BD61BD40BD0FB6C3
:10095000F894FA9AF99A0FBE08951F920F920FB663
:100960000F9211242F933F938F939F93AF93BF9335
:100970008091AB019091AC01A091AD01B091AE011D
:100980003091AF010196A11DB11D232F2D5F2D3791
:1009900020F02D570196A11DB11D2093AF0180932A
:1009A000AB019093AC01A093AD01B093AE018091E7
:1009B000A7019091A801A091A901B091AA01019667
:1009C000A11DB11D8093A7019093A801A093A90137
:1009D000B093AA01BF91AF919F918F913F912F91B9
:1009E0000F900FBE0F901F901895789484B5826079
:1009F00084BD84B5816084BD85B5826085BD85B5C3
:100A0000816085BDEEE6F0E0808181608083E1E871
:100A1000F0E01082808182608083808181608083A9
:100A2000E0E8F0E0808181608083E1EBF0E08081AC
:100A300084608083E0EBF0E0808181608083EAE77E
:100A4000F0E0808184608083808182608083808107
:100A5000816080838081806880831092C1000895C6
:100A6000EF92FF920F931F93CF93DF937B018C0143
:100A70003FB7F8948091A7019091A801A091A90196
:100A8000B091AA0126B5A89B05C02F3F19F0019689
:100A9000A11DB11D3FBFBA2FA92F982F8827820F04
:100AA000911DA11DB11D52E0880F991FAA1FBB1FE8
:100AB0005A95D1F7EC0130C00E94E7083FB7F8948F
:100AC0008091A7019091A801A091A901B091AA01DC
:100AD00026B5A89B05C02F3F19F00196A11DB11D99
:100AE0003FBFBA2FA92F982F8827820F911DA11DD4
:100AF000B11D32E0880F991FAA1FBB1F3A95D1F78D
:100B00008C1B9D0B885E9340B8F20894E108F108B5
:100B100001091109C851DC4FE114F1040105110567
:100B200059F6DF91CF911F910F91FF90EF900895AB
:100B3000CF93DF93482F50E0CA0186569F4FFC01A8
:100B400034914A575F4FFA018491882369F190E00C
:100B5000880F991FFC01E859FF4FA591B491FC0142
:100B6000EE58FF4FC591D491662351F42FB7F894F6
:100B70008C91932F909589238C93888189230BC026
:100B8000623061F42FB7F8948C91932F909589235C
:100B90008C938881832B88832FBF06C09FB7F894DE
:100BA0008C91832B8C939FBFDF91CF910895482F19
:100BB00050E0CA0182559F4FFC012491CA0186561C
:100BC0009F4FFC0194914A575F4FFA0134913323B0
:100BD00009F440C0222351F1233071F0243028F46D
:100BE0002130A1F0223011F514C02630B1F02730A9
:100BF000C1F02430D9F404C0809180008F7703C005
:100C0000809180008F7D8093800010C084B58F77A5
:100C100002C084B58F7D84BD09C08091B0008F77FC
:100C200003C08091B0008F7D8093B000E32FF0E08F
:100C3000EE0FFF1FEE58FF4FA591B4912FB7F89418
:100C4000662321F48C919095892302C08C91892B85
:100C50008C932FBF0895682F70E0CB0182559F4F72
:100C6000FC012491CB0186569F4FFC0144916A57A9
:100C70007F4FFB019491992319F420E030E03CC0B0
:100C8000222351F1233071F0243028F42130A1F0D7
:100C9000223011F514C02630B1F02730C1F02430D5
:100CA000D9F404C0809180008F7703C080918000C8
:100CB0008F7D8093800010C084B58F7702C084B58B
:100CC0008F7D84BD09C08091B0008F7703C0809173
:100CD000B0008F7D8093B000892F90E0880F991F1E
:100CE00084589F4FFC01A591B4918C9120E030E095
:100CF000842311F021E030E0C901089508951F9286
:100D00000F920FB60F9211242F933F934F938F930F
:100D10009F93EF93FF938091C00082FD1DC040918F
:100D2000C6002091F0013091F1012F5F3F4F2F73EA
:100D300030708091F2019091F3012817390771F01A
:100D4000E091F001F091F101E055FE4F40833093C6
:100D5000F1012093F00102C08091C600FF91EF9154
:100D60009F918F914F913F912F910F900FBE0F90B8
:100D70001F901895E0914402F0914502E05CFF4F0E
:100D80008191919120813181821B930B8F7390709F
:100D9000892B11F00E947E0608951F920F920FB6C4
:100DA0000F9211242F933F938F939F93EF93FF9371
:100DB00020913402309135028091360290913702B1
:100DC0002817390731F48091C1008F7D8093C100CD
:100DD00014C0E0913602F0913702EC50FE4F2081B2
:100DE000809136029091370201968F7390709093A4
:100DF0003702809336022093C600FF91EF919F91B6
:100E00008F913F912F910F900FBE0F901F901895CB
:100E1000AF92BF92DF92EF92FF920F931F93CF9307
:100E2000DF93EC017A018B01DD24403081EE58071D
:100E300080E0680780E0780711F0DD24D39491E02A
:100E4000A92EB12CEC89FD89DD2069F0C50108A02F
:100E500002C0880F991F0A94E2F7808360E079E06E
:100E60008DE390E005C0108260E874E88EE190E0C8
:100E7000A80197010E94E8082150304040405040AE
:100E8000569547953795279580E12030380720F013
:100E9000DD2011F0DD24D6CFE889F9893083EA8995
:100EA000FB89208319A2EE89FF89408121E030E08F
:100EB000C9010C8C02C0880F991F0A94E2F7482BD5
:100EC0004083EE89FF894081C9010D8C02C0880FE3
:100ED000991F0A94E2F7482B4083EE89FF894081ED
:100EE000C9010E8C02C0880F991F0A94E2F7482BA3
:100EF0004083EE89FF8980810F8C02C0220F331F4F
:100F00000A94E2F7209528232083DF91CF911F9147
:100F10000F91FF90EF90DF90BF90AF900895DC01AC
:100F20001C96ED91FC911D97E05CFF4F2191319152
:100F300080819181281B390B2F733070C90108956E
:100F4000DC011C96ED91FC911D97E05CFF4F208128
:100F50003181E054F040DF01AE5BBF4F8D919C9139
:100F600011972817390719F42FEF3FEF07C08D911C
:100F70009C91E80FF91F8081282F30E0C901089566
:100F8000DC011C96ED91FC911D97E05CFF4F2081E8
:100F90003181E054F040DF01AE5BBF4F8D919C91F9
:100FA00011972817390719F42FEF3FEF10C08D91D3
:100FB0009C911197E80FF91F20818D919C911197B9
:100FC00001968F73907011969C938E9330E0C901B7
:100FD0000895DC0191968C919197882339F054966D
:100FE000ED91FC915597808186FFF9CF91961C92E7
:100FF0000895CF93DF93EC01EE85FF85E05CFF4F12
:1010000020813181E054F0402F5F3F4F2F733070CB
:10101000DF01AE5BBF4F8D919C9111972817390767
:10102000D1F3E05CFF4F80819181E054F040E80F04
:10103000F91F6083EE85FF85E05CFF4F31832083DD
:10104000EE89FF89208181E090E00F8C02C0880F3B
:10105000991F0A94E2F7282B208381E089A3EC8969
:10106000FD8980818064808381E090E0DF91CF9171
:10107000089510923B0210923A0288EE93E0A0E0AD
:10108000B0E080933C0290933D02A0933E02B09367
:101090003F0283E291E0909339028093380280EB23
:1010A00091E0909345028093440284EF91E0909305
:1010B00047028093460285EC90E09093490280932A
:1010C000480284EC90E090934B0280934A0280ECBB
:1010D00090E090934D0280934C0281EC90E09093CD
:1010E0004F0280934E0282EC90E0909351028093E5
:1010F000500286EC90E0909353028093520284E079
:101100008093540283E08093550287E080935602D7
:1011100085E08093570281E0809358020895CF9331
:10112000DF930E94F5040E946604CAEBD6E00E9499
:101130000C042097E1F30E94BA06F9CFCF92DF9218
:10114000EF92FF920F931F93CF93DF937C016B017C
:101150008A01C0E0D0E00FC0D6016D916D01D701CA
:10116000ED91FC910190F081E02DC7010995C80F28
:10117000D91F015010400115110571F7CE01DF9103
:10118000CF911F910F91FF90EF90DF90CF90089536
:10119000CF93DF93EC016115710519F420E030E085
:1011A0000FC0DB010D900020E9F71197A61BB70BCC
:1011B000E881F9810280F381E02DAD0109959C0160
:1011C000C901DF91CF9108950E94C808089508953C
:1011D000A1E21A2EAA1BBB1BFD010DC0AA1FBB1F3B
:1011E000EE1FFF1FA217B307E407F50720F0A21BAD
:1011F000B30BE40BF50B661F771F881F991F1A941A
:1012000069F760957095809590959B01AC01BD0143
:10121000CF010895EE0FFF1F0590F491E02D099482
:04122000F894FFCF70
:10122400504253502076313A000D0A005042535038
:101234002076313A00401FB80BE8037631000000F5
:10124400000000F9079E088F07C007A007E9070000
:00000001FF
